{
  "transactions": [
    {
      "hash": "0xc3f6f408b9479c6891aa7a9930f940399b589c58a9f9bbb1ec51f1eb18d098cd",
      "transactionType": "CREATE",
      "contractName": "OrderBook",
      "contractAddress": "0xAD9D3c6fE0087b2b8b7e16918a8750BE2b9178E0",
      "function": null,
      "arguments": [
        "0xB3f5503f93d5Ef84b06993a1975B9D21B962892F"
      ],
      "rpc": "https://polygon-mumbai.infura.io/v3/679fa3785c5346fcb07d7fc1df71880b",
      "transaction": {
        "type": "0x02",
        "from": "0xc00bd227d8028c90f30b35930abe62ba551f8f36",
        "gas": "0x137e4d",
        "value": "0x0",
        "data": "0x6101206040523480156200001257600080fd5b5060405162001258380380620012588339810160408190526200003591620001fe565b80308130816001600160a01b03166080816001600160a01b031681525050816001600160a01b031663573ea5756040518163ffffffff1660e01b8152600401602060405180830381865afa15801562000092573d6000803e3d6000fd5b505050506040513d601f19601f82011682018060405250810190620000b89190620001fe565b6001600160a01b0390811660c0526040516337b6269f60e21b8152908216600482015273c815db16d4be6ddf2685c201937905abf338f5d79063ded89a7c906024016040805180830381865afa15801562000117573d6000803e3d6000fd5b505050506040513d601f19601f820116820180604052508101906200013d919062000225565b506001600160a01b0390811660a05283811660e0526080516040805163e60a321360e01b8152905191909216935063e60a3213925060048083019260209291908290030181865afa15801562000197573d6000803e3d6000fd5b505050506040513d601f19601f82011682018060405250810190620001bd9190620001fe565b6001600160a01b0316610100525050600280546001600160a01b031916331790555062000268565b6001600160a01b0381168114620001fb57600080fd5b50565b6000602082840312156200021157600080fd5b81516200021e81620001e5565b9392505050565b600080604083850312156200023957600080fd5b82516200024681620001e5565b602084015190925080151581146200025d57600080fd5b809150509250929050565b60805160a05160c05160e05161010051610f8c620002cc600039600081816102da0152610b3101526000818161013b01528181610a6a0152610afa015260005050600060be01526000818161030101528181610458015261081d0152610f8c6000f3fe608060405234801561001057600080fd5b50600436106100b45760003560e01c806358b91f0d1161007157806358b91f0d14610170578063744bfe6114610191578063756677a1146101a4578063d09ef241146101b7578063e60a3213146102d5578063e70abe92146102fc57600080fd5b806328f150eb146100b95780632993c690146100fd578063350157a814610112578063408a03d81461012357806346ee3c5914610136578063514fcac71461015d575b600080fd5b6100e07f000000000000000000000000000000000000000000000000000000000000000081565b6040516001600160a01b0390911681526020015b60405180910390f35b61011061010b366004610c0a565b610323565b005b6003546001600160a01b03166100e0565b610110610131366004610c3b565b6103b8565b6100e07f000000000000000000000000000000000000000000000000000000000000000081565b61011061016b366004610c0a565b610404565b61018361017e366004610c5f565b6104bf565b6040519081526020016100f4565b61011061019f366004610ca9565b610a5f565b6101106101b2366004610c3b565b610b91565b6102726101c5366004610c0a565b6040805160e081018252600080825260208201819052918101829052606081018290526080810182905260a0810182905260c08101919091525060009081526020818152604091829020825160e08101845281546001600160a01b03908116825260018301549382019390935260028201549381019390935260038101548216606084015260048101549091166080830152600581015460a08301526006015460ff16151560c082015290565b6040516100f4919081516001600160a01b03908116825260208084015190830152604080840151908301526060808401518216908301526080808401519091169082015260a0828101519082015260c09182015115159181019190915260e00190565b6100e07f000000000000000000000000000000000000000000000000000000000000000081565b6100e07f000000000000000000000000000000000000000000000000000000000000000081565b6003546001600160a01b0316331461039a5760405162461bcd60e51b815260206004820152602f60248201527f4f6e6c7920746865206578656375746f722063616e2073657420746865206f7260448201526e19195c88185cc8195e1958dd5d1959608a1b60648201526084015b60405180910390fd5b6000908152602081905260409020600601805460ff19166001179055565b6002546001600160a01b031633146103e25760405162461bcd60e51b815260040161039190610cd9565b600480546001600160a01b0319166001600160a01b0392909216919091179055565b6002546001600160a01b0316331461042e5760405162461bcd60e51b815260040161039190610cd9565b6000818152602081905260409081902060050154905163ee8ca3b560e01b815260048101919091527f00000000000000000000000000000000000000000000000000000000000000006001600160a01b03169063ee8ca3b590602401600060405180830381600087803b1580156104a457600080fd5b505af11580156104b8573d6000803e3d6000fd5b5050505050565b6000826001600160a01b03166338d52e0f6040518163ffffffff1660e01b8152600401602060405180830381865afa1580156104ff573d6000803e3d6000fd5b505050506040513d601f19601f820116820180604052508101906105239190610d07565b600480546040516323b872dd60e01b815233928101929092526001600160a01b0390811660248301526044820187905291909116906323b872dd906064016020604051808303816000875af1158015610580573d6000803e3d6000fd5b505050506040513d601f19601f820116820180604052508101906105a49190610d24565b50600154604080516024808201939093528151808203909301835260440181526020820180516001600160e01b031663253d844d60e21b1790528051600381830181815260c083019093526000928291606080840190803683370190505081526040805160038082526080820190925260209092019190816020015b6060815260200190600190039081610620575050905280518051919250600091829061064e5761064e610d46565b6020026020010190600381111561066757610667610d5c565b9081600381111561067a5761067a610d5c565b815250506002816000015160018151811061069757610697610d46565b602002602001019060038111156106b0576106b0610d5c565b908160038111156106c3576106c3610d5c565b81525050600381600001516002815181106106e0576106e0610d46565b602002602001019060038111156106f9576106f9610d5c565b9081600381111561070c5761070c610d5c565b905250600354600154604051610770926001600160a01b03169182916394e05b2c9161073e9160240190815260200190565b604051602081830303815290604052915060e01b6020820180516001600160e01b038381831617835250505050610bdd565b816020015160008151811061078757610787610d46565b60200260200101819052506107a760408051602081019091526000815290565b81602001516001815181106107be576107be610d46565b60200260200101819052506107de60408051602081019091526000815290565b81602001516002815181106107f5576107f5610d46565b6020908102919091010152600354604051633323b46760e01b81526000916001600160a01b037f0000000000000000000000000000000000000000000000000000000000000000811692633323b4679261086d9216908790879073eeeeeeeeeeeeeeeeeeeeeeeeeeeeeeeeeeeeeeee90600401610e0d565b6020604051808303816000875af115801561088c573d6000803e3d6000fd5b505050506040513d601f19601f820116820180604052508101906108b09190610ecf565b6040805160e08101825233815260208082018c81528284018c81526001600160a01b038c8116606086019081528c82166080870190815260a08701898152600060c0890181815260018054835298829052908a9020985189549086166001600160a01b0319918216178a559651898901559451600289015591516003880180549185169187169190911790555160048088018054928516929096169190911790945551600586015590516006909401805494151560ff199095169490941790935580549154935163b6b55f2560e01b815294955091169263b6b55f259261099d9290910190815260200190565b600060405180830381600087803b1580156109b757600080fd5b505af11580156109cb573d6000803e3d6000fd5b5050600180549250905060006109e083610efe565b91905055507ff29bb1c73c1b34ece9e10cb136610579d9b7cb3f424e0e58c2d22e958092e615600154604051610a3d91906040808252600a90820152696f726465724e6f6e636560b01b6060820152602081019190915260800190565b60405180910390a160018054610a539190610f17565b98975050505050505050565b336001600160a01b037f00000000000000000000000000000000000000000000000000000000000000001614610ae35760405162461bcd60e51b815260206004820152602360248201527f4f6e6c792066756e6473206f776e65722063616e2077697468647261772066756044820152626e647360e81b6064820152608401610391565b604051631c20fadd60e01b81526001600160a01b037f0000000000000000000000000000000000000000000000000000000000000000811660048301528281166024830152604482018490527f00000000000000000000000000000000000000000000000000000000000000001690631c20fadd90606401600060405180830381600087803b158015610b7557600080fd5b505af1158015610b89573d6000803e3d6000fd5b505050505050565b6002546001600160a01b03163314610bbb5760405162461bcd60e51b815260040161039190610cd9565b600380546001600160a01b0319166001600160a01b0392909216919091179055565b60608282604051602001610bf2929190610f2a565b60405160208183030381529060405290505b92915050565b600060208284031215610c1c57600080fd5b5035919050565b6001600160a01b0381168114610c3857600080fd5b50565b600060208284031215610c4d57600080fd5b8135610c5881610c23565b9392505050565b60008060008060808587031215610c7557600080fd5b84359350602085013592506040850135610c8e81610c23565b91506060850135610c9e81610c23565b939692955090935050565b60008060408385031215610cbc57600080fd5b823591506020830135610cce81610c23565b809150509250929050565b6020808252601490820152732737ba1030b63637bbb2b21030b2323932b9b99760611b604082015260600190565b600060208284031215610d1957600080fd5b8151610c5881610c23565b600060208284031215610d3657600080fd5b81518015158114610c5857600080fd5b634e487b7160e01b600052603260045260246000fd5b634e487b7160e01b600052602160045260246000fd5b6000815180845260005b81811015610d9857602081850181015186830182015201610d7c565b506000602082860101526020601f19601f83011685010191505092915050565b600081518084526020808501808196508360051b8101915082860160005b85811015610e00578284038952610dee848351610d72565b98850198935090840190600101610dd6565b5091979650505050505050565b6001600160a01b038516815260806020808301829052600091610e3290840187610d72565b838103604080860191909152865181835280519183018290528301906000906060840190825b81811015610e915784516004808210610e7e57634e487b7160e01b865260218152602486fd5b5083529386019391860191600101610e58565b505084890151925083810385850152610eaa8184610db8565b95505050505050610ec660608301846001600160a01b03169052565b95945050505050565b600060208284031215610ee157600080fd5b5051919050565b634e487b7160e01b600052601160045260246000fd5b600060018201610f1057610f10610ee8565b5060010190565b81810381811115610c0457610c04610ee8565b6001600160a01b0383168152604060208201819052600090610f4e90830184610d72565b94935050505056fea26469706673582212204f7da502426025cb7d1255eefa5ead1c2d56fefbb7bd06eea4283f5f9209962d64736f6c63430008130033000000000000000000000000b3f5503f93d5ef84b06993a1975b9d21b962892f",
        "nonce": "0x12",
        "accessList": []
      },
      "additionalContracts": []
    },
    {
      "hash": "0x0ed85cd2544fc9360a8f5290e985b637dd1aad66d5cd436dad796166ecb597e5",
      "transactionType": "CREATE",
      "contractName": "OrderExecutor",
      "contractAddress": "0xa6F9EdaeECEeFDDf1f3E17371d81CEb860D35767",
      "function": null,
      "arguments": [
        "0xB3f5503f93d5Ef84b06993a1975B9D21B962892F",
        "0xAD9D3c6fE0087b2b8b7e16918a8750BE2b9178E0",
        "0xE592427A0AEce92De3Edee1F18E0157C05861564"
      ],
      "rpc": "https://polygon-mumbai.infura.io/v3/679fa3785c5346fcb07d7fc1df71880b",
      "transaction": {
        "type": "0x02",
        "from": "0xc00bd227d8028c90f30b35930abe62ba551f8f36",
        "gas": "0x173e2e",
        "value": "0x0",
        "data": "0x6101006040523480156200001257600080fd5b50604051620014e6380380620014e683398101604081905262000035916200019b565b8282816001600160a01b03166080816001600160a01b031681525050816001600160a01b031663573ea5756040518163ffffffff1660e01b8152600401602060405180830381865afa15801562000090573d6000803e3d6000fd5b505050506040513d601f19601f82011682018060405250810190620000b69190620001ef565b6001600160a01b0390811660c0526040516337b6269f60e21b8152908216600482015273c815db16d4be6ddf2685c201937905abf338f5d79063ded89a7c906024016040805180830381865afa15801562000115573d6000803e3d6000fd5b505050506040513d601f19601f820116820180604052508101906200013b919062000216565b506001600160a01b0390811660a052606460005560018054336001600160a01b031991821617909155600280549091169582169590951790945550501660e0525062000259565b6001600160a01b03811681146200019857600080fd5b50565b600080600060608486031215620001b157600080fd5b8351620001be8162000182565b6020850151909350620001d18162000182565b6040850151909250620001e48162000182565b809150509250925092565b6000602082840312156200020257600080fd5b81516200020f8162000182565b9392505050565b600080604083850312156200022a57600080fd5b8251620002378162000182565b602084015190925080151581146200024e57600080fd5b809150509250929050565b60805160a05160c05160e051611231620002b5600039600081816101e3015281816107180152610a09015260008181610c200152610cea01526000818160be01526103bb0152600081816102570152610b6f01526112316000f3fe6080604052600436106100a05760003560e01c806394f611341161006457806394f611341461018d578063a035b1fe146101ad578063c31c9c07146101d1578063cb8c5a3a14610205578063d5f3948814610225578063e70abe921461024557600080fd5b806328f150eb146100ac578063408a03d8146100fd578063776af5ba1461011f57806391b7f5ed1461013f57806394e05b2c1461015f57600080fd5b366100a757005b600080fd5b3480156100b857600080fd5b506100e07f000000000000000000000000000000000000000000000000000000000000000081565b6040516001600160a01b0390911681526020015b60405180910390f35b34801561010957600080fd5b5061011d610118366004610fda565b610279565b005b34801561012b57600080fd5b506002546100e0906001600160a01b031681565b34801561014b57600080fd5b5061011d61015a366004610ffe565b600055565b34801561016b57600080fd5b5061017f61017a366004610ffe565b6102f1565b6040516100f4929190611067565b34801561019957600080fd5b5061011d6101a8366004610ffe565b6103b0565b3480156101b957600080fd5b506101c360005481565b6040519081526020016100f4565b3480156101dd57600080fd5b506100e07f000000000000000000000000000000000000000000000000000000000000000081565b34801561021157600080fd5b506003546100e0906001600160a01b031681565b34801561023157600080fd5b506001546100e0906001600160a01b031681565b34801561025157600080fd5b506100e07f000000000000000000000000000000000000000000000000000000000000000081565b6001546001600160a01b031633146102cf5760405162461bcd60e51b81526020600482015260146024820152732737ba1030b63637bbb2b21030b2323932b9b99760611b60448201526064015b60405180910390fd5b600380546001600160a01b0319166001600160a01b0392909216919091179055565b6000805460025460405163d09ef24160e01b815260048101859052606092916001600160a01b03169063d09ef2419060240160e060405180830381865afa158015610340573d6000803e3d6000fd5b505050506040513d601f19601f8201168201806040525081019061036491906110a2565b602001511491508260405160240161037e91815260200190565b60408051601f198184030181529190526020810180516001600160e01b031663253d844d60e21b179052919391925050565b336001600160a01b037f000000000000000000000000000000000000000000000000000000000000000016146104285760405162461bcd60e51b815260206004820152601960248201527f4f6e6c7920646564696361746564206d73672e73656e6465720000000000000060448201526064016102c6565b60025460405163d09ef24160e01b8152600481018390526001600160a01b039091169063d09ef2419060240160e060405180830381865afa158015610471573d6000803e3d6000fd5b505050506040513d601f19601f8201168201806040525081019061049591906110a2565b60c00151156104e65760405162461bcd60e51b815260206004820152601760248201527f4f7264657220616c72656164792065786563757465642e00000000000000000060448201526064016102c6565b60005460025460405163d09ef24160e01b8152600481018490526001600160a01b039091169063d09ef2419060240160e060405180830381865afa158015610532573d6000803e3d6000fd5b505050506040513d601f19601f8201168201806040525081019061055691906110a2565b60200151146105be5760405162461bcd60e51b815260206004820152602e60248201527f5072696365206973206e6f74207468652073616d6520617320746865206f6e6560448201526d1034b7103a34329037b93232b91760911b60648201526084016102c6565b600354604051632e1a7d4d60e01b8152600481018390526000916001600160a01b031690632e1a7d4d906024016020604051808303816000875af115801561060a573d6000803e3d6000fd5b505050506040513d601f19601f8201168201806040525081019061062e919061114b565b60025460405163d09ef24160e01b8152600481018590529192506001600160a01b03169063d09ef2419060240160e060405180830381865afa158015610678573d6000803e3d6000fd5b505050506040513d601f19601f8201168201806040525081019061069c91906110a2565b606001516001600160a01b03166338d52e0f6040518163ffffffff1660e01b8152600401602060405180830381865afa1580156106dd573d6000803e3d6000fd5b505050506040513d601f19601f820116820180604052508101906107019190611164565b60405163095ea7b360e01b81526001600160a01b037f00000000000000000000000000000000000000000000000000000000000000008116600483015260248201849052919091169063095ea7b3906044016020604051808303816000875af1158015610772573d6000803e3d6000fd5b505050506040513d601f19601f820116820180604052508101906107969190611181565b506040805161010081019182905260025463d09ef24160e01b909252610104810184905260009181906001600160a01b031663d09ef241610124830160e060405180830381865afa1580156107ef573d6000803e3d6000fd5b505050506040513d601f19601f8201168201806040525081019061081391906110a2565b606001516001600160a01b03166338d52e0f6040518163ffffffff1660e01b8152600401602060405180830381865afa158015610854573d6000803e3d6000fd5b505050506040513d601f19601f820116820180604052508101906108789190611164565b6001600160a01b03908116825260025460405163d09ef24160e01b81526004810188905260209093019291169063d09ef2419060240160e060405180830381865afa1580156108cb573d6000803e3d6000fd5b505050506040513d601f19601f820116820180604052508101906108ef91906110a2565b608001516001600160a01b039081168252610bb860208301526002546040805163d09ef24160e01b81526004810189905293019291169063d09ef2419060240160e060405180830381865afa15801561094c573d6000803e3d6000fd5b505050506040513d601f19601f8201168201806040525081019061097091906110a2565b516001600160a01b03908116825242602080840191909152604080840187905260006060808601829052608095860191909152815163414bf38960e01b815286518516600482015292860151841660248401529085015162ffffff1660448301528401518216606482015291830151608483015260a083015160a483015260c083015160c483015260e0830151811660e48301529192507f00000000000000000000000000000000000000000000000000000000000000009091169063414bf38990610104016020604051808303816000875af1158015610a55573d6000803e3d6000fd5b505050506040513d601f19601f82011682018060405250810190610a79919061114b565b506002546040516302993c6960e41b8152600481018590526001600160a01b0390911690632993c69090602401600060405180830381600087803b158015610ac057600080fd5b505af1158015610ad4573d6000803e3d6000fd5b505050507f9e86ce0485ddb047dd0f8fde14218156b79c2832f3c1ae9d2a05aa746cb6e3be83604051610b3291906040808252600e908201526d1bdc99195c97d95e1958dd5d195960921b6060820152602081019190915260800190565b60405180910390a1600080610b45610b6a565b9150915047683635c9adc5dea0000014610b6357610b638282610bf7565b5050505050565b6000807f00000000000000000000000000000000000000000000000000000000000000006001600160a01b031663b810c6366040518163ffffffff1660e01b81526004016040805180830381865afa158015610bca573d6000803e3d6000fd5b505050506040513d601f19601f82011682018060405250810190610bee919061119c565b90939092509050565b73eeeeeeeeeeeeeeeeeeeeeeeeeeeeeeeeeeeeeeed196001600160a01b03821601610ce45760007f00000000000000000000000000000000000000000000000000000000000000006001600160a01b03168360405160006040518083038185875af1925050503d8060008114610c89576040519150601f19603f3d011682016040523d82523d6000602084013e610c8e565b606091505b5050905080610cdf5760405162461bcd60e51b815260206004820152601e60248201527f5f7472616e736665723a20455448207472616e73666572206661696c6564000060448201526064016102c6565b505050565b610d0f817f000000000000000000000000000000000000000000000000000000000000000084610d13565b5050565b604080516001600160a01b038416602482015260448082018490528251808303909101815260649091019091526020810180516001600160e01b031663a9059cbb60e01b179052610cdf9084906000610db5826040518060400160405280602081526020017f5361666545524332303a206c6f772d6c6576656c2063616c6c206661696c6564815250856001600160a01b0316610e329092919063ffffffff16565b805190915015610cdf5780806020019051810190610dd39190611181565b610cdf5760405162461bcd60e51b815260206004820152602a60248201527f5361666545524332303a204552433230206f7065726174696f6e20646964206e6044820152691bdd081cdd58d8d9595960b21b60648201526084016102c6565b6060610e418484600085610e49565b949350505050565b606082471015610eaa5760405162461bcd60e51b815260206004820152602660248201527f416464726573733a20696e73756666696369656e742062616c616e636520666f6044820152651c8818d85b1b60d21b60648201526084016102c6565b600080866001600160a01b03168587604051610ec691906111cc565b60006040518083038185875af1925050503d8060008114610f03576040519150601f19603f3d011682016040523d82523d6000602084013e610f08565b606091505b5091509150610f1987838387610f24565b979650505050505050565b60608315610f93578251600003610f8c576001600160a01b0385163b610f8c5760405162461bcd60e51b815260206004820152601d60248201527f416464726573733a2063616c6c20746f206e6f6e2d636f6e747261637400000060448201526064016102c6565b5081610e41565b610e418383815115610fa85781518083602001fd5b8060405162461bcd60e51b81526004016102c691906111e8565b6001600160a01b0381168114610fd757600080fd5b50565b600060208284031215610fec57600080fd5b8135610ff781610fc2565b9392505050565b60006020828403121561101057600080fd5b5035919050565b60005b8381101561103257818101518382015260200161101a565b50506000910152565b60008151808452611053816020860160208601611017565b601f01601f19169290920160200192915050565b8215158152604060208201526000610e41604083018461103b565b805161108d81610fc2565b919050565b8051801515811461108d57600080fd5b600060e082840312156110b457600080fd5b60405160e0810181811067ffffffffffffffff821117156110e557634e487b7160e01b600052604160045260246000fd5b6040526110f183611082565b8152602083015160208201526040830151604082015261111360608401611082565b606082015261112460808401611082565b608082015260a083015160a082015261113f60c08401611092565b60c08201529392505050565b60006020828403121561115d57600080fd5b5051919050565b60006020828403121561117657600080fd5b8151610ff781610fc2565b60006020828403121561119357600080fd5b610ff782611092565b600080604083850312156111af57600080fd5b8251915060208301516111c181610fc2565b809150509250929050565b600082516111de818460208701611017565b9190910192915050565b602081526000610ff7602083018461103b56fea264697066735822122016708001a0060a0cfdefe337476ab32c6ef42cab9c7a717cc1cc59b09734f9b064736f6c63430008130033000000000000000000000000b3f5503f93d5ef84b06993a1975b9d21b962892f000000000000000000000000ad9d3c6fe0087b2b8b7e16918a8750be2b9178e0000000000000000000000000e592427a0aece92de3edee1f18e0157c05861564",
        "nonce": "0x13",
        "accessList": []
      },
      "additionalContracts": []
    },
    {
      "hash": "0xebe9576fa8ff84e295f453e4889b18f3c8078bb9f9a75d01aac0e237802e55f3",
      "transactionType": "CALL",
      "contractName": "OrderBook",
      "contractAddress": "0xAD9D3c6fE0087b2b8b7e16918a8750BE2b9178E0",
      "function": "setOrderExecutor(address)",
      "arguments": [
        "0xa6F9EdaeECEeFDDf1f3E17371d81CEb860D35767"
      ],
      "rpc": "https://polygon-mumbai.infura.io/v3/679fa3785c5346fcb07d7fc1df71880b",
      "transaction": {
        "type": "0x02",
        "from": "0xc00bd227d8028c90f30b35930abe62ba551f8f36",
        "to": "0xad9d3c6fe0087b2b8b7e16918a8750be2b9178e0",
        "gas": "0x10741",
        "value": "0x0",
        "data": "0x756677a1000000000000000000000000a6f9edaeeceefddf1f3e17371d81ceb860d35767",
        "nonce": "0x14",
        "accessList": []
      },
      "additionalContracts": []
    },
    {
      "hash": "0x02e3b6907a950aaaba90bb5ec6d856ea7acd18be355b42e21f49788476afef97",
      "transactionType": "CREATE",
      "contractName": "LendingVault",
      "contractAddress": "0x0930bae089461ad90996f2C33F1DF2E8a520e516",
      "function": null,
      "arguments": [
        "0xAD9D3c6fE0087b2b8b7e16918a8750BE2b9178E0"
      ],
      "rpc": "https://polygon-mumbai.infura.io/v3/679fa3785c5346fcb07d7fc1df71880b",
      "transaction": {
        "type": "0x02",
        "from": "0xc00bd227d8028c90f30b35930abe62ba551f8f36",
        "gas": "0x9522f",
        "value": "0x0",
        "data": "0x60a060405234801561001057600080fd5b5060405161082438038061082483398101604081905261002f91610040565b6001600160a01b0316608052610070565b60006020828403121561005257600080fd5b81516001600160a01b038116811461006957600080fd5b9392505050565b60805161078561009f60003960008181609c0152818161010e01528181610302015261041501526107856000f3fe608060405234801561001057600080fd5b506004361061004c5760003560e01c80632e1a7d4d146100515780633b75556114610077578063776af5ba14610097578063b6b55f25146100d6575b600080fd5b61006461005f3660046105fd565b6100eb565b6040519081526020015b60405180910390f35b6100646100853660046105fd565b60006020819052908152604090205481565b6100be7f000000000000000000000000000000000000000000000000000000000000000081565b6040516001600160a01b03909116815260200161006e565b6100e96100e43660046105fd565b6103fc565b005b60405163d09ef24160e01b81526004810182905260009081906001600160a01b037f0000000000000000000000000000000000000000000000000000000000000000169063d09ef2419060240160e060405180830381865afa158015610155573d6000803e3d6000fd5b505050506040513d601f19601f82011682018060405250810190610179919061064e565b60608101516000858152602081905260409081902054905163095ea7b360e01b81526001600160a01b038316600482018190526024820192909252929350909163095ea7b3906044016020604051808303816000875af11580156101e1573d6000803e3d6000fd5b505050506040513d601f19601f8201168201806040525081019061020591906106f7565b50600084815260208190526040808220549051635d043b2960e11b81526004810191909152306024820181905260448201526001600160a01b0383169063ba087652906064016020604051808303816000875af115801561026a573d6000803e3d6000fd5b505050506040513d601f19601f8201168201806040525081019061028e9190610719565b9050816001600160a01b03166338d52e0f6040518163ffffffff1660e01b8152600401602060405180830381865afa1580156102ce573d6000803e3d6000fd5b505050506040513d601f19601f820116820180604052508101906102f29190610732565b6001600160a01b031663a9059cbb7f00000000000000000000000000000000000000000000000000000000000000006001600160a01b031663350157a86040518163ffffffff1660e01b8152600401602060405180830381865afa15801561035e573d6000803e3d6000fd5b505050506040513d601f19601f820116820180604052508101906103829190610732565b6040516001600160e01b031960e084901b1681526001600160a01b039091166004820152602481018490526044016020604051808303816000875af11580156103cf573d6000803e3d6000fd5b505050506040513d601f19601f820116820180604052508101906103f391906106f7565b50949350505050565b60405163d09ef24160e01b8152600481018290526000907f00000000000000000000000000000000000000000000000000000000000000006001600160a01b03169063d09ef2419060240160e060405180830381865afa158015610464573d6000803e3d6000fd5b505050506040513d601f19601f82011682018060405250810190610488919061064e565b9050600081606001519050806001600160a01b03166338d52e0f6040518163ffffffff1660e01b8152600401602060405180830381865afa1580156104d1573d6000803e3d6000fd5b505050506040513d601f19601f820116820180604052508101906104f59190610732565b604080840151905163095ea7b360e01b81526001600160a01b038481166004830152602482019290925291169063095ea7b3906044016020604051808303816000875af115801561054a573d6000803e3d6000fd5b505050506040513d601f19601f8201168201806040525081019061056e91906106f7565b506040828101519051636e553f6560e01b815260048101919091523060248201526001600160a01b03821690636e553f65906044016020604051808303816000875af11580156105c2573d6000803e3d6000fd5b505050506040513d601f19601f820116820180604052508101906105e69190610719565b600093845260208490526040909320929092555050565b60006020828403121561060f57600080fd5b5035919050565b6001600160a01b038116811461062b57600080fd5b50565b805161063981610616565b919050565b8051801515811461063957600080fd5b600060e0828403121561066057600080fd5b60405160e0810181811067ffffffffffffffff8211171561069157634e487b7160e01b600052604160045260246000fd5b60405261069d8361062e565b815260208301516020820152604083015160408201526106bf6060840161062e565b60608201526106d06080840161062e565b608082015260a083015160a08201526106eb60c0840161063e565b60c08201529392505050565b60006020828403121561070957600080fd5b6107128261063e565b9392505050565b60006020828403121561072b57600080fd5b5051919050565b60006020828403121561074457600080fd5b81516107128161061656fea2646970667358221220477a342695cfdc0459b9e07fe6cfe3b330964637bb3350a41d4966f702234e1b64736f6c63430008130033000000000000000000000000ad9d3c6fe0087b2b8b7e16918a8750be2b9178e0",
        "nonce": "0x15",
        "accessList": []
      },
      "additionalContracts": []
    },
    {
      "hash": "0x47afd610d562750bc036302acd97585c902fd4a2e8940bfc5075b3288858a0b5",
      "transactionType": "CALL",
      "contractName": "OrderBook",
      "contractAddress": "0xAD9D3c6fE0087b2b8b7e16918a8750BE2b9178E0",
      "function": "setLendingVault(address)",
      "arguments": [
        "0x0930bae089461ad90996f2C33F1DF2E8a520e516"
      ],
      "rpc": "https://polygon-mumbai.infura.io/v3/679fa3785c5346fcb07d7fc1df71880b",
      "transaction": {
        "type": "0x02",
        "from": "0xc00bd227d8028c90f30b35930abe62ba551f8f36",
        "to": "0xad9d3c6fe0087b2b8b7e16918a8750be2b9178e0",
        "gas": "0xf8c0",
        "value": "0x0",
        "data": "0x408a03d80000000000000000000000000930bae089461ad90996f2c33f1df2e8a520e516",
        "nonce": "0x16",
        "accessList": []
      },
      "additionalContracts": []
    },
    {
      "hash": "0x4dd806a80e34e256a1da662243dbf71d35a88a735994421b6067788aa520c8c4",
      "transactionType": "CALL",
      "contractName": "OrderExecutor",
      "contractAddress": "0xa6F9EdaeECEeFDDf1f3E17371d81CEb860D35767",
      "function": "setLendingVault(address)",
      "arguments": [
        "0x0930bae089461ad90996f2C33F1DF2E8a520e516"
      ],
      "rpc": "https://polygon-mumbai.infura.io/v3/679fa3785c5346fcb07d7fc1df71880b",
      "transaction": {
        "type": "0x02",
        "from": "0xc00bd227d8028c90f30b35930abe62ba551f8f36",
        "to": "0xa6f9edaeeceefddf1f3e17371d81ceb860d35767",
        "gas": "0xf883",
        "value": "0x0",
        "data": "0x408a03d80000000000000000000000000930bae089461ad90996f2c33f1df2e8a520e516",
        "nonce": "0x17",
        "accessList": []
      },
      "additionalContracts": []
    },
    {
      "hash": "0x97f8af7163071bdf7f8b30de4c046b94eae5998153908961142892deb5fd136a",
      "transactionType": "CREATE",
      "contractName": "YielDexLiteProxy",
      "contractAddress": "0xc59d5cAa781868FeA755276fc2609299a9719F37",
      "function": null,
      "arguments": null,
      "rpc": "https://polygon-mumbai.infura.io/v3/679fa3785c5346fcb07d7fc1df71880b",
      "transaction": {
        "type": "0x02",
        "from": "0xc00bd227d8028c90f30b35930abe62ba551f8f36",
        "gas": "0xbb379",
        "value": "0x0",
        "data": "0x608060405234801561001057600080fd5b50600080546001600160a01b0319163317905561094d806100326000396000f3fe608060405234801561001057600080fd5b50600436106100b45760003560e01c80639a1598c8116100715780639a1598c814610158578063a849d6441461016b578063cb8c5a3a1461017e578063d09ef24114610191578063eb91d37e14610207578063f851a4401461020f57600080fd5b8063408a03d8146100b957806358b91f0d146100ce578063704b6c02146100f4578063756677a114610107578063776af5ba1461011a57806391b7f5ed14610145575b600080fd5b6100cc6100c7366004610704565b610222565b005b6100e16100dc366004610728565b6102ab565b6040519081526020015b60405180910390f35b6100cc610102366004610704565b610365565b6100cc610115366004610704565b6103e2565b60015461012d906001600160a01b031681565b6040516001600160a01b0390911681526020016100eb565b6100cc610153366004610772565b610467565b6100cc610166366004610704565b6104f0565b60025461012d906001600160a01b031681565b60035461012d906001600160a01b031681565b6101a461019f366004610772565b610571565b6040516100eb919081516001600160a01b03908116825260208084015190830152604080840151908301526060808401518216908301526080808401519091169082015260a0828101519082015260c09182015115159181019190915260e00190565b6100e1610645565b60005461012d906001600160a01b031681565b6000546001600160a01b031633146102895760405162461bcd60e51b815260206004820152603160248201526000805160206108f8833981519152604482015270081cd95d081b195b991a5b99d5985d5b1d607a1b60648201526084015b60405180910390fd5b600380546001600160a01b0319166001600160a01b0392909216919091179055565b6001546000906001600160a01b03166102d65760405162461bcd60e51b81526004016102809061078b565b6001546040516358b91f0d60e01b815260048101879052602481018690526001600160a01b0385811660448301528481166064830152909116906358b91f0d906084016020604051808303816000875af1158015610338573d6000803e3d6000fd5b505050506040513d601f19601f8201168201806040525081019061035c91906107ce565b95945050505050565b6000546001600160a01b031633146103c05760405162461bcd60e51b815260206004820152602a60248201526000805160206108f88339815191526044820152691039b2ba1030b236b4b760b11b6064820152608401610280565b600080546001600160a01b0319166001600160a01b0392909216919091179055565b6000546001600160a01b031633146104455760405162461bcd60e51b815260206004820152603260248201526000805160206108f88339815191526044820152711039b2ba1037b93232b922bc32b1baba37b960711b6064820152608401610280565b600280546001600160a01b0319166001600160a01b0392909216919091179055565b6002546001600160a01b031661048f5760405162461bcd60e51b8152600401610280906107e7565b6002546040516391b7f5ed60e01b8152600481018390526001600160a01b03909116906391b7f5ed90602401600060405180830381600087803b1580156104d557600080fd5b505af11580156104e9573d6000803e3d6000fd5b5050505050565b6000546001600160a01b0316331461054f5760405162461bcd60e51b815260206004820152602e60248201526000805160206108f883398151915260448201526d20736574206f72646572426f6f6b60901b6064820152608401610280565b600180546001600160a01b0319166001600160a01b0392909216919091179055565b6040805160e081018252600080825260208201819052918101829052606081018290526080810182905260a0810182905260c08101919091526001546001600160a01b03166105d25760405162461bcd60e51b81526004016102809061078b565b60015460405163d09ef24160e01b8152600481018490526001600160a01b039091169063d09ef2419060240160e060405180830381865afa15801561061b573d6000803e3d6000fd5b505050506040513d601f19601f8201168201806040525081019061063f919061084e565b92915050565b6002546000906001600160a01b03166106705760405162461bcd60e51b8152600401610280906107e7565b600260009054906101000a90046001600160a01b03166001600160a01b031663a035b1fe6040518163ffffffff1660e01b8152600401602060405180830381865afa1580156106c3573d6000803e3d6000fd5b505050506040513d601f19601f820116820180604052508101906106e791906107ce565b905090565b6001600160a01b038116811461070157600080fd5b50565b60006020828403121561071657600080fd5b8135610721816106ec565b9392505050565b6000806000806080858703121561073e57600080fd5b84359350602085013592506040850135610757816106ec565b91506060850135610767816106ec565b939692955090935050565b60006020828403121561078457600080fd5b5035919050565b60208082526023908201527f5969656c4465784c69746550726f78793a204f72646572426f6f6b206e6f74206040820152621cd95d60ea1b606082015260800190565b6000602082840312156107e057600080fd5b5051919050565b60208082526027908201527f5969656c4465784c69746550726f78793a204f726465724578656375746f72206040820152661b9bdd081cd95d60ca1b606082015260800190565b8051610839816106ec565b919050565b8051801515811461083957600080fd5b600060e0828403121561086057600080fd5b60405160e0810181811067ffffffffffffffff8211171561089157634e487b7160e01b600052604160045260246000fd5b60405261089d8361082e565b815260208301516020820152604083015160408201526108bf6060840161082e565b60608201526108d06080840161082e565b608082015260a083015160a08201526108eb60c0840161083e565b60c0820152939250505056fe5969656c4465784c69746550726f78793a204f6e6c792061646d696e2063616ea2646970667358221220776c06da3602ec660e12b0017b73035f45f6c6437cb4ade26073abaca297562364736f6c63430008130033",
        "nonce": "0x18",
        "accessList": []
      },
      "additionalContracts": []
    },
    {
      "hash": "0x094935e7e59a72ea3048b541fd2c7cd6466a4e5b84b1d4b0c47f8ee4b432f11a",
      "transactionType": "CALL",
      "contractName": "YielDexLiteProxy",
      "contractAddress": "0xc59d5cAa781868FeA755276fc2609299a9719F37",
      "function": "setOrderBook(address)",
      "arguments": [
        "0xAD9D3c6fE0087b2b8b7e16918a8750BE2b9178E0"
      ],
      "rpc": "https://polygon-mumbai.infura.io/v3/679fa3785c5346fcb07d7fc1df71880b",
      "transaction": {
        "type": "0x02",
        "from": "0xc00bd227d8028c90f30b35930abe62ba551f8f36",
        "to": "0xc59d5caa781868fea755276fc2609299a9719f37",
        "gas": "0xf864",
        "value": "0x0",
        "data": "0x9a1598c8000000000000000000000000ad9d3c6fe0087b2b8b7e16918a8750be2b9178e0",
        "nonce": "0x19",
        "accessList": []
      },
      "additionalContracts": []
    },
    {
      "hash": "0x6017d6d199fb2321e646a2c0d5c05bfed5a19b0696fc13c0adb6f45de8f52821",
      "transactionType": "CALL",
      "contractName": "YielDexLiteProxy",
      "contractAddress": "0xc59d5cAa781868FeA755276fc2609299a9719F37",
      "function": "setOrderExecutor(address)",
      "arguments": [
        "0xa6F9EdaeECEeFDDf1f3E17371d81CEb860D35767"
      ],
      "rpc": "https://polygon-mumbai.infura.io/v3/679fa3785c5346fcb07d7fc1df71880b",
      "transaction": {
        "type": "0x02",
        "from": "0xc00bd227d8028c90f30b35930abe62ba551f8f36",
        "to": "0xc59d5caa781868fea755276fc2609299a9719f37",
        "gas": "0xf8c0",
        "value": "0x0",
        "data": "0x756677a1000000000000000000000000a6f9edaeeceefddf1f3e17371d81ceb860d35767",
        "nonce": "0x1a",
        "accessList": []
      },
      "additionalContracts": []
    },
    {
      "hash": "0x5f4cc086e56276fb8462af14b3c4ac073edab3de23b939ddf6530a4655aa4123",
      "transactionType": "CALL",
      "contractName": "YielDexLiteProxy",
      "contractAddress": "0xc59d5cAa781868FeA755276fc2609299a9719F37",
      "function": "setLendingVault(address)",
      "arguments": [
        "0x0930bae089461ad90996f2C33F1DF2E8a520e516"
      ],
      "rpc": "https://polygon-mumbai.infura.io/v3/679fa3785c5346fcb07d7fc1df71880b",
      "transaction": {
        "type": "0x02",
        "from": "0xc00bd227d8028c90f30b35930abe62ba551f8f36",
        "to": "0xc59d5caa781868fea755276fc2609299a9719f37",
        "gas": "0xf865",
        "value": "0x0",
        "data": "0x408a03d80000000000000000000000000930bae089461ad90996f2c33f1df2e8a520e516",
        "nonce": "0x1b",
        "accessList": []
      },
      "additionalContracts": []
    }
  ],
  "receipts": [
    {
      "transactionHash": "0xc3f6f408b9479c6891aa7a9930f940399b589c58a9f9bbb1ec51f1eb18d098cd",
      "transactionIndex": "0x2",
      "blockHash": "0x9200b3ef2517ee0adbd61697127b5bb1eb2926a1a0a3f9010ba2761f22654806",
      "blockNumber": "0x1f7ffe6",
      "from": "0xc00bd227D8028c90f30B35930abe62bA551F8f36",
      "to": null,
      "cumulativeGasUsed": "0x12060a",
      "gasUsed": "0xefeb2",
      "contractAddress": "0xAD9D3c6fE0087b2b8b7e16918a8750BE2b9178E0",
      "logs": [
        {
          "address": "0x0000000000000000000000000000000000001010",
          "topics": [
            "0x4dfe1bbbcf077ddc3e01291eea2d5c70c2b422b415d95645b9adcfd678cb1d63",
            "0x0000000000000000000000000000000000000000000000000000000000001010",
            "0x000000000000000000000000c00bd227d8028c90f30b35930abe62ba551f8f36",
            "0x0000000000000000000000003a22c8bc68e98b0faf40f349dd2b2890fae01484"
          ],
          "data": "0x000000000000000000000000000000000000000000000000000a794c353570e000000000000000000000000000000000000000000000000002ef91dd17bf70fb0000000000000000000000000000000000000000000003b16297bbbefa44de4300000000000000000000000000000000000000000000000002e51890e28a001b0000000000000000000000000000000000000000000003b162a2350b2f7a4f23",
          "blockHash": "0x9200b3ef2517ee0adbd61697127b5bb1eb2926a1a0a3f9010ba2761f22654806",
          "blockNumber": "0x1f7ffe6",
          "transactionHash": "0xc3f6f408b9479c6891aa7a9930f940399b589c58a9f9bbb1ec51f1eb18d098cd",
          "transactionIndex": "0x2",
          "logIndex": "0x5",
          "removed": false
        }
      ],
      "status": "0x1",
      "logsBloom": "0x00000000000000000000000000000000000000000000000000000000000000000000000000000000000010000000000000008000000000000000000000008000000000000000000000000200000000800000000000000010000100000000000000000000000000000000000000000000000000000000000080000000000000000000000000000000000000000000000000000000000000000000000000000000200000000000000000080000000000000000000000000000000000000000004000000000000000000001000000000100000000000000000000100000000000000000000000000000000000000000000000000000000000000000000000100000",
      "type": "0x2",
      "effectiveGasPrice": "0xb2d05e00"
    },
    {
      "transactionHash": "0x0ed85cd2544fc9360a8f5290e985b637dd1aad66d5cd436dad796166ecb597e5",
      "transactionIndex": "0x3",
      "blockHash": "0x9200b3ef2517ee0adbd61697127b5bb1eb2926a1a0a3f9010ba2761f22654806",
      "blockNumber": "0x1f7ffe6",
      "from": "0xc00bd227D8028c90f30B35930abe62bA551F8f36",
      "to": null,
      "cumulativeGasUsed": "0x23e71a",
      "gasUsed": "0x11e110",
      "contractAddress": "0xa6F9EdaeECEeFDDf1f3E17371d81CEb860D35767",
      "logs": [
        {
          "address": "0x0000000000000000000000000000000000001010",
          "topics": [
            "0x4dfe1bbbcf077ddc3e01291eea2d5c70c2b422b415d95645b9adcfd678cb1d63",
            "0x0000000000000000000000000000000000000000000000000000000000001010",
            "0x000000000000000000000000c00bd227d8028c90f30b35930abe62ba551f8f36",
            "0x0000000000000000000000003a22c8bc68e98b0faf40f349dd2b2890fae01484"
          ],
          "data": "0x000000000000000000000000000000000000000000000000000c7d0a8c85cf0000000000000000000000000000000000000000000000000002e51890e19a14fb0000000000000000000000000000000000000000000003b162a2350b2f7a4f2300000000000000000000000000000000000000000000000002d89b86551445fb0000000000000000000000000000000000000000000003b162aeb215bc001e23",
          "blockHash": "0x9200b3ef2517ee0adbd61697127b5bb1eb2926a1a0a3f9010ba2761f22654806",
          "blockNumber": "0x1f7ffe6",
          "transactionHash": "0x0ed85cd2544fc9360a8f5290e985b637dd1aad66d5cd436dad796166ecb597e5",
          "transactionIndex": "0x3",
          "logIndex": "0x6",
          "removed": false
        }
      ],
      "status": "0x1",
      "logsBloom": "0x00000000000000000000000000000000000000000000000000000000000000000000000000000000000010000000000000008000000000000000000000008000000000000000000000000200000000800000000000000010000100000000000000000000000000000000000000000000000000000000000080000000000000000000000000000000000000000000000000000000000000000000000000000000200000000000000000080000000000000000000000000000000000000000004000000000000000000001000000000100000000000000000000100000000000000000000000000000000000000000000000000000000000000000000000100000",
      "type": "0x2",
      "effectiveGasPrice": "0xb2d05e00"
    },
    {
      "transactionHash": "0xebe9576fa8ff84e295f453e4889b18f3c8078bb9f9a75d01aac0e237802e55f3",
      "transactionIndex": "0x4",
      "blockHash": "0x9200b3ef2517ee0adbd61697127b5bb1eb2926a1a0a3f9010ba2761f22654806",
      "blockNumber": "0x1f7ffe6",
      "from": "0xc00bd227D8028c90f30B35930abe62bA551F8f36",
      "to": "0xAD9D3c6fE0087b2b8b7e16918a8750BE2b9178E0",
      "cumulativeGasUsed": "0x249b1b",
      "gasUsed": "0xb401",
      "contractAddress": null,
      "logs": [
        {
          "address": "0x0000000000000000000000000000000000001010",
          "topics": [
            "0x4dfe1bbbcf077ddc3e01291eea2d5c70c2b422b415d95645b9adcfd678cb1d63",
            "0x0000000000000000000000000000000000000000000000000000000000001010",
            "0x000000000000000000000000c00bd227d8028c90f30b35930abe62ba551f8f36",
            "0x0000000000000000000000003a22c8bc68e98b0faf40f349dd2b2890fae01484"
          ],
          "data": "0x00000000000000000000000000000000000000000000000000007dbb34dd1df000000000000000000000000000000000000000000000000002d89b8653f634fb0000000000000000000000000000000000000000000003b162aeb215bc001e2300000000000000000000000000000000000000000000000002d81dcb1f19170b0000000000000000000000000000000000000000000003b162af2fd0f0dd3c13",
          "blockHash": "0x9200b3ef2517ee0adbd61697127b5bb1eb2926a1a0a3f9010ba2761f22654806",
          "blockNumber": "0x1f7ffe6",
          "transactionHash": "0xebe9576fa8ff84e295f453e4889b18f3c8078bb9f9a75d01aac0e237802e55f3",
          "transactionIndex": "0x4",
          "logIndex": "0x7",
          "removed": false
        }
      ],
      "status": "0x1",
      "logsBloom": "0x00000000000000000000000000000000000000000000000000000000000000000000000000000000000010000000000000008000000000000000000000008000000000000000000000000200000000800000000000000010000100000000000000000000000000000000000000000000000000000000000080000000000000000000000000000000000000000000000000000000000000000000000000000000200000000000000000080000000000000000000000000000000000000000004000000000000000000001000000000100000000000000000000100000000000000000000000000000000000000000000000000000000000000000000000100000",
      "type": "0x2",
      "effectiveGasPrice": "0xb2d05e00"
    },
    {
      "transactionHash": "0x02e3b6907a950aaaba90bb5ec6d856ea7acd18be355b42e21f49788476afef97",
      "transactionIndex": "0x5",
      "blockHash": "0x9200b3ef2517ee0adbd61697127b5bb1eb2926a1a0a3f9010ba2761f22654806",
      "blockNumber": "0x1f7ffe6",
      "from": "0xc00bd227D8028c90f30B35930abe62bA551F8f36",
      "to": null,
      "cumulativeGasUsed": "0x2bc6a2",
      "gasUsed": "0x72b87",
      "contractAddress": "0x0930bae089461ad90996f2C33F1DF2E8a520e516",
      "logs": [
        {
          "address": "0x0000000000000000000000000000000000001010",
          "topics": [
            "0x4dfe1bbbcf077ddc3e01291eea2d5c70c2b422b415d95645b9adcfd678cb1d63",
            "0x0000000000000000000000000000000000000000000000000000000000001010",
            "0x000000000000000000000000c00bd227d8028c90f30b35930abe62ba551f8f36",
            "0x0000000000000000000000003a22c8bc68e98b0faf40f349dd2b2890fae01484"
          ],
          "data": "0x00000000000000000000000000000000000000000000000000050219dd38d99000000000000000000000000000000000000000000000000002d81dcb1f0dd6fb0000000000000000000000000000000000000000000003b162af2fd0f0dd3c1300000000000000000000000000000000000000000000000002d31bb141d4fd6b0000000000000000000000000000000000000000000003b162b431eace1615a3",
          "blockHash": "0x9200b3ef2517ee0adbd61697127b5bb1eb2926a1a0a3f9010ba2761f22654806",
          "blockNumber": "0x1f7ffe6",
          "transactionHash": "0x02e3b6907a950aaaba90bb5ec6d856ea7acd18be355b42e21f49788476afef97",
          "transactionIndex": "0x5",
          "logIndex": "0x8",
          "removed": false
        }
      ],
      "status": "0x1",
      "logsBloom": "0x00000000000000000000000000000000000000000000000000000000000000000000000000000000000010000000000000008000000000000000000000008000000000000000000000000200000000800000000000000010000100000000000000000000000000000000000000000000000000000000000080000000000000000000000000000000000000000000000000000000000000000000000000000000200000000000000000080000000000000000000000000000000000000000004000000000000000000001000000000100000000000000000000100000000000000000000000000000000000000000000000000000000000000000000000100000",
      "type": "0x2",
      "effectiveGasPrice": "0xb2d05e00"
    },
    {
      "transactionHash": "0x47afd610d562750bc036302acd97585c902fd4a2e8940bfc5075b3288858a0b5",
      "transactionIndex": "0x6",
      "blockHash": "0x9200b3ef2517ee0adbd61697127b5bb1eb2926a1a0a3f9010ba2761f22654806",
      "blockNumber": "0x1f7ffe6",
      "from": "0xc00bd227D8028c90f30B35930abe62bA551F8f36",
      "to": "0xAD9D3c6fE0087b2b8b7e16918a8750BE2b9178E0",
      "cumulativeGasUsed": "0x2c7aba",
      "gasUsed": "0xb418",
      "contractAddress": null,
      "logs": [
        {
          "address": "0x0000000000000000000000000000000000001010",
          "topics": [
            "0x4dfe1bbbcf077ddc3e01291eea2d5c70c2b422b415d95645b9adcfd678cb1d63",
            "0x0000000000000000000000000000000000000000000000000000000000001010",
            "0x000000000000000000000000c00bd227d8028c90f30b35930abe62ba551f8f36",
            "0x0000000000000000000000003a22c8bc68e98b0faf40f349dd2b2890fae01484"
          ],
          "data": "0x00000000000000000000000000000000000000000000000000007dcb45958e8000000000000000000000000000000000000000000000000002d31bb1416244fb0000000000000000000000000000000000000000000003b162b431eace1615a300000000000000000000000000000000000000000000000002d29de5fbccb67b0000000000000000000000000000000000000000000003b162b4afb613aba423",
          "blockHash": "0x9200b3ef2517ee0adbd61697127b5bb1eb2926a1a0a3f9010ba2761f22654806",
          "blockNumber": "0x1f7ffe6",
          "transactionHash": "0x47afd610d562750bc036302acd97585c902fd4a2e8940bfc5075b3288858a0b5",
          "transactionIndex": "0x6",
          "logIndex": "0x9",
          "removed": false
        }
      ],
      "status": "0x1",
      "logsBloom": "0x00000000000000000000000000000000000000000000000000000000000000000000000000000000000010000000000000008000000000000000000000008000000000000000000000000200000000800000000000000010000100000000000000000000000000000000000000000000000000000000000080000000000000000000000000000000000000000000000000000000000000000000000000000000200000000000000000080000000000000000000000000000000000000000004000000000000000000001000000000100000000000000000000100000000000000000000000000000000000000000000000000000000000000000000000100000",
      "type": "0x2",
      "effectiveGasPrice": "0xb2d05e00"
    },
    {
      "transactionHash": "0x4dd806a80e34e256a1da662243dbf71d35a88a735994421b6067788aa520c8c4",
      "transactionIndex": "0x7",
      "blockHash": "0x9200b3ef2517ee0adbd61697127b5bb1eb2926a1a0a3f9010ba2761f22654806",
      "blockNumber": "0x1f7ffe6",
      "from": "0xc00bd227D8028c90f30B35930abe62bA551F8f36",
      "to": "0xa6F9EdaeECEeFDDf1f3E17371d81CEb860D35767",
      "cumulativeGasUsed": "0x2d2ea6",
      "gasUsed": "0xb3ec",
      "contractAddress": null,
      "logs": [
        {
          "address": "0x0000000000000000000000000000000000001010",
          "topics": [
            "0x4dfe1bbbcf077ddc3e01291eea2d5c70c2b422b415d95645b9adcfd678cb1d63",
            "0x0000000000000000000000000000000000000000000000000000000000001010",
            "0x000000000000000000000000c00bd227d8028c90f30b35930abe62ba551f8f36",
            "0x0000000000000000000000003a22c8bc68e98b0faf40f349dd2b2890fae01484"
          ],
          "data": "0x00000000000000000000000000000000000000000000000000007dac89c5694000000000000000000000000000000000000000000000000002d29de5fbc174fb0000000000000000000000000000000000000000000003b162b4afb613aba42300000000000000000000000000000000000000000000000002d2203971fc0bbb0000000000000000000000000000000000000000000003b162b52d629d710d63",
          "blockHash": "0x9200b3ef2517ee0adbd61697127b5bb1eb2926a1a0a3f9010ba2761f22654806",
          "blockNumber": "0x1f7ffe6",
          "transactionHash": "0x4dd806a80e34e256a1da662243dbf71d35a88a735994421b6067788aa520c8c4",
          "transactionIndex": "0x7",
          "logIndex": "0xa",
          "removed": false
        }
      ],
      "status": "0x1",
      "logsBloom": "0x00000000000000000000000000000000000000000000000000000000000000000000000000000000000010000000000000008000000000000000000000008000000000000000000000000200000000800000000000000010000100000000000000000000000000000000000000000000000000000000000080000000000000000000000000000000000000000000000000000000000000000000000000000000200000000000000000080000000000000000000000000000000000000000004000000000000000000001000000000100000000000000000000100000000000000000000000000000000000000000000000000000000000000000000000100000",
      "type": "0x2",
      "effectiveGasPrice": "0xb2d05e00"
    },
    {
      "transactionHash": "0x97f8af7163071bdf7f8b30de4c046b94eae5998153908961142892deb5fd136a",
      "transactionIndex": "0x8",
      "blockHash": "0x9200b3ef2517ee0adbd61697127b5bb1eb2926a1a0a3f9010ba2761f22654806",
      "blockNumber": "0x1f7ffe6",
      "from": "0xc00bd227D8028c90f30B35930abe62bA551F8f36",
      "to": null,
      "cumulativeGasUsed": "0x362edc",
      "gasUsed": "0x90036",
      "contractAddress": "0xc59d5cAa781868FeA755276fc2609299a9719F37",
      "logs": [
        {
          "address": "0x0000000000000000000000000000000000001010",
          "topics": [
            "0x4dfe1bbbcf077ddc3e01291eea2d5c70c2b422b415d95645b9adcfd678cb1d63",
            "0x0000000000000000000000000000000000000000000000000000000000001010",
            "0x000000000000000000000000c00bd227d8028c90f30b35930abe62ba551f8f36",
            "0x0000000000000000000000003a22c8bc68e98b0faf40f349dd2b2890fae01484"
          ],
          "data": "0x000000000000000000000000000000000000000000000000000649790563d0a000000000000000000000000000000000000000000000000002d2203971f0ccfb0000000000000000000000000000000000000000000003b162b52d629d710d6300000000000000000000000000000000000000000000000002cbd6c06c8cfc5b0000000000000000000000000000000000000000000003b162bb76dba2d4de03",
          "blockHash": "0x9200b3ef2517ee0adbd61697127b5bb1eb2926a1a0a3f9010ba2761f22654806",
          "blockNumber": "0x1f7ffe6",
          "transactionHash": "0x97f8af7163071bdf7f8b30de4c046b94eae5998153908961142892deb5fd136a",
          "transactionIndex": "0x8",
          "logIndex": "0xb",
          "removed": false
        }
      ],
      "status": "0x1",
      "logsBloom": "0x00000000000000000000000000000000000000000000000000000000000000000000000000000000000010000000000000008000000000000000000000008000000000000000000000000200000000800000000000000010000100000000000000000000000000000000000000000000000000000000000080000000000000000000000000000000000000000000000000000000000000000000000000000000200000000000000000080000000000000000000000000000000000000000004000000000000000000001000000000100000000000000000000100000000000000000000000000000000000000000000000000000000000000000000000100000",
      "type": "0x2",
      "effectiveGasPrice": "0xb2d05e00"
    },
    {
      "transactionHash": "0x094935e7e59a72ea3048b541fd2c7cd6466a4e5b84b1d4b0c47f8ee4b432f11a",
      "transactionIndex": "0x9",
      "blockHash": "0x9200b3ef2517ee0adbd61697127b5bb1eb2926a1a0a3f9010ba2761f22654806",
      "blockNumber": "0x1f7ffe6",
      "from": "0xc00bd227D8028c90f30B35930abe62bA551F8f36",
      "to": "0xc59d5cAa781868FeA755276fc2609299a9719F37",
      "cumulativeGasUsed": "0x36e2b1",
      "gasUsed": "0xb3d5",
      "contractAddress": null,
      "logs": [
        {
          "address": "0x0000000000000000000000000000000000001010",
          "topics": [
            "0x4dfe1bbbcf077ddc3e01291eea2d5c70c2b422b415d95645b9adcfd678cb1d63",
            "0x0000000000000000000000000000000000000000000000000000000000001010",
            "0x000000000000000000000000c00bd227d8028c90f30b35930abe62ba551f8f36",
            "0x0000000000000000000000003a22c8bc68e98b0faf40f349dd2b2890fae01484"
          ],
          "data": "0x00000000000000000000000000000000000000000000000000007d9c790cf8b000000000000000000000000000000000000000000000000002cbd6c06bfcf8fb0000000000000000000000000000000000000000000003b162bb76dba2d4de0300000000000000000000000000000000000000000000000002cb5923f2f0004b0000000000000000000000000000000000000000000003b162bbf4781be1d6b3",
          "blockHash": "0x9200b3ef2517ee0adbd61697127b5bb1eb2926a1a0a3f9010ba2761f22654806",
          "blockNumber": "0x1f7ffe6",
          "transactionHash": "0x094935e7e59a72ea3048b541fd2c7cd6466a4e5b84b1d4b0c47f8ee4b432f11a",
          "transactionIndex": "0x9",
          "logIndex": "0xc",
          "removed": false
        }
      ],
      "status": "0x1",
      "logsBloom": "0x00000000000000000000000000000000000000000000000000000000000000000000000000000000000010000000000000008000000000000000000000008000000000000000000000000200000000800000000000000010000100000000000000000000000000000000000000000000000000000000000080000000000000000000000000000000000000000000000000000000000000000000000000000000200000000000000000080000000000000000000000000000000000000000004000000000000000000001000000000100000000000000000000100000000000000000000000000000000000000000000000000000000000000000000000100000",
      "type": "0x2",
      "effectiveGasPrice": "0xb2d05e00"
    },
    {
      "transactionHash": "0x6017d6d199fb2321e646a2c0d5c05bfed5a19b0696fc13c0adb6f45de8f52821",
      "transactionIndex": "0xa",
      "blockHash": "0x9200b3ef2517ee0adbd61697127b5bb1eb2926a1a0a3f9010ba2761f22654806",
      "blockNumber": "0x1f7ffe6",
      "from": "0xc00bd227D8028c90f30B35930abe62bA551F8f36",
      "to": "0xc59d5cAa781868FeA755276fc2609299a9719F37",
      "cumulativeGasUsed": "0x3796c9",
      "gasUsed": "0xb418",
      "contractAddress": null,
      "logs": [
        {
          "address": "0x0000000000000000000000000000000000001010",
          "topics": [
            "0x4dfe1bbbcf077ddc3e01291eea2d5c70c2b422b415d95645b9adcfd678cb1d63",
            "0x0000000000000000000000000000000000000000000000000000000000001010",
            "0x000000000000000000000000c00bd227d8028c90f30b35930abe62ba551f8f36",
            "0x0000000000000000000000003a22c8bc68e98b0faf40f349dd2b2890fae01484"
          ],
          "data": "0x00000000000000000000000000000000000000000000000000007dcb45958e8000000000000000000000000000000000000000000000000002cb5923f2e4c2fb0000000000000000000000000000000000000000000003b162bbf4781be1d6b300000000000000000000000000000000000000000000000002cadb58ad4f347b0000000000000000000000000000000000000000000003b162bc724361776533",
          "blockHash": "0x9200b3ef2517ee0adbd61697127b5bb1eb2926a1a0a3f9010ba2761f22654806",
          "blockNumber": "0x1f7ffe6",
          "transactionHash": "0x6017d6d199fb2321e646a2c0d5c05bfed5a19b0696fc13c0adb6f45de8f52821",
          "transactionIndex": "0xa",
          "logIndex": "0xd",
          "removed": false
        }
      ],
      "status": "0x1",
      "logsBloom": "0x00000000000000000000000000000000000000000000000000000000000000000000000000000000000010000000000000008000000000000000000000008000000000000000000000000200000000800000000000000010000100000000000000000000000000000000000000000000000000000000000080000000000000000000000000000000000000000000000000000000000000000000000000000000200000000000000000080000000000000000000000000000000000000000004000000000000000000001000000000100000000000000000000100000000000000000000000000000000000000000000000000000000000000000000000100000",
      "type": "0x2",
      "effectiveGasPrice": "0xb2d05e00"
    },
    {
      "transactionHash": "0x5f4cc086e56276fb8462af14b3c4ac073edab3de23b939ddf6530a4655aa4123",
      "transactionIndex": "0xb",
      "blockHash": "0x9200b3ef2517ee0adbd61697127b5bb1eb2926a1a0a3f9010ba2761f22654806",
      "blockNumber": "0x1f7ffe6",
      "from": "0xc00bd227D8028c90f30B35930abe62bA551F8f36",
      "to": "0xc59d5cAa781868FeA755276fc2609299a9719F37",
      "cumulativeGasUsed": "0x384a9f",
      "gasUsed": "0xb3d6",
      "contractAddress": null,
      "logs": [
        {
          "address": "0x0000000000000000000000000000000000001010",
          "topics": [
            "0x4dfe1bbbcf077ddc3e01291eea2d5c70c2b422b415d95645b9adcfd678cb1d63",
            "0x0000000000000000000000000000000000000000000000000000000000001010",
            "0x000000000000000000000000c00bd227d8028c90f30b35930abe62ba551f8f36",
            "0x0000000000000000000000003a22c8bc68e98b0faf40f349dd2b2890fae01484"
          ],
          "data": "0x00000000000000000000000000000000000000000000000000007d9d2bdd56a000000000000000000000000000000000000000000000000002cadb58ad43f2fb0000000000000000000000000000000000000000000003b162bc72436177653300000000000000000000000000000000000000000000000002ca5dbb81669c5b0000000000000000000000000000000000000000000003b162bcefe08d54bbd3",
          "blockHash": "0x9200b3ef2517ee0adbd61697127b5bb1eb2926a1a0a3f9010ba2761f22654806",
          "blockNumber": "0x1f7ffe6",
          "transactionHash": "0x5f4cc086e56276fb8462af14b3c4ac073edab3de23b939ddf6530a4655aa4123",
          "transactionIndex": "0xb",
          "logIndex": "0xe",
          "removed": false
        }
      ],
      "status": "0x1",
      "logsBloom": "0x00000000000000000000000000000000000000000000000000000000000000000000000000000000000010000000000000008000000000000000000000008000000000000000000000000200000000800000000000000010000100000000000000000000000000000000000000000000000000000000000080000000000000000000000000000000000000000000000000000000000000000000000000000000200000000000000000080000000000000000000000000000000000000000004000000000000000000001000000000100000000000000000000100000000000000000000000000000000000000000000000000000000000000000000000100000",
      "type": "0x2",
      "effectiveGasPrice": "0xb2d05e00"
    }
  ],
  "libraries": [],
  "pending": [],
  "path": "/Users/blabla/Documents/yieldex/YielDex_Core/broadcast/Deploy_MUMBAI.s.sol/80001/run-latest.json",
  "returns": {},
  "timestamp": 1678643504,
  "chain": 80001,
  "multi": false,
  "commit": "c3bd5ea"
}