{
  "transactions": [
    {
      "hash": "0x6d88da575f1763577fbbee11c100e9e72e32f82bfd6047447795bf0143f1f8d4",
      "transactionType": "CREATE",
      "contractName": "OrderBook",
      "contractAddress": "0x3e02caeC5FC57e256292Fd54898a080AD65BCD22",
      "function": null,
      "arguments": [
        "0xB3f5503f93d5Ef84b06993a1975B9D21B962892F"
      ],
      "rpc": "https://polygon-mumbai.infura.io/v3/679fa3785c5346fcb07d7fc1df71880b",
      "transaction": {
        "type": "0x02",
        "from": "0xc00bd227d8028c90f30b35930abe62ba551f8f36",
        "gas": "0x145f1e",
        "value": "0x0",
        "data": "0x6101206040523480156200001257600080fd5b5060405162001325380380620013258339810160408190526200003591620001fe565b80308130816001600160a01b03166080816001600160a01b031681525050816001600160a01b031663573ea5756040518163ffffffff1660e01b8152600401602060405180830381865afa15801562000092573d6000803e3d6000fd5b505050506040513d601f19601f82011682018060405250810190620000b89190620001fe565b6001600160a01b0390811660c0526040516337b6269f60e21b8152908216600482015273c815db16d4be6ddf2685c201937905abf338f5d79063ded89a7c906024016040805180830381865afa15801562000117573d6000803e3d6000fd5b505050506040513d601f19601f820116820180604052508101906200013d919062000225565b506001600160a01b0390811660a05283811660e0526080516040805163e60a321360e01b8152905191909216935063e60a3213925060048083019260209291908290030181865afa15801562000197573d6000803e3d6000fd5b505050506040513d601f19601f82011682018060405250810190620001bd9190620001fe565b6001600160a01b0316610100525050600280546001600160a01b031916331790555062000268565b6001600160a01b0381168114620001fb57600080fd5b50565b6000602082840312156200021157600080fd5b81516200021e81620001e5565b9392505050565b600080604083850312156200023957600080fd5b82516200024681620001e5565b602084015190925080151581146200025d57600080fd5b809150509250929050565b60805160a05160c05160e05161010051611059620002cc600039600081816102da0152610bfe01526000818161013b01528181610b370152610bc7015260005050600060be01526000818161030101528181610458015261081501526110596000f3fe608060405234801561001057600080fd5b50600436106100b45760003560e01c806358b91f0d1161007157806358b91f0d14610170578063744bfe6114610191578063756677a1146101a4578063d09ef241146101b7578063e60a3213146102d5578063e70abe92146102fc57600080fd5b806328f150eb146100b95780632993c690146100fd578063350157a814610112578063408a03d81461012357806346ee3c5914610136578063514fcac71461015d575b600080fd5b6100e07f000000000000000000000000000000000000000000000000000000000000000081565b6040516001600160a01b0390911681526020015b60405180910390f35b61011061010b366004610cd7565b610323565b005b6003546001600160a01b03166100e0565b610110610131366004610d08565b6103b8565b6100e07f000000000000000000000000000000000000000000000000000000000000000081565b61011061016b366004610cd7565b610404565b61018361017e366004610d2c565b6104bf565b6040519081526020016100f4565b61011061019f366004610d76565b610b2c565b6101106101b2366004610d08565b610c5e565b6102726101c5366004610cd7565b6040805160e081018252600080825260208201819052918101829052606081018290526080810182905260a0810182905260c08101919091525060009081526020818152604091829020825160e08101845281546001600160a01b03908116825260018301549382019390935260028201549381019390935260038101548216606084015260048101549091166080830152600581015460a08301526006015460ff16151560c082015290565b6040516100f4919081516001600160a01b03908116825260208084015190830152604080840151908301526060808401518216908301526080808401519091169082015260a0828101519082015260c09182015115159181019190915260e00190565b6100e07f000000000000000000000000000000000000000000000000000000000000000081565b6100e07f000000000000000000000000000000000000000000000000000000000000000081565b6003546001600160a01b0316331461039a5760405162461bcd60e51b815260206004820152602f60248201527f4f6e6c7920746865206578656375746f722063616e2073657420746865206f7260448201526e19195c88185cc8195e1958dd5d1959608a1b60648201526084015b60405180910390fd5b6000908152602081905260409020600601805460ff19166001179055565b6002546001600160a01b031633146103e25760405162461bcd60e51b815260040161039190610da6565b600480546001600160a01b0319166001600160a01b0392909216919091179055565b6002546001600160a01b0316331461042e5760405162461bcd60e51b815260040161039190610da6565b6000818152602081905260409081902060050154905163ee8ca3b560e01b815260048101919091527f00000000000000000000000000000000000000000000000000000000000000006001600160a01b03169063ee8ca3b590602401600060405180830381600087803b1580156104a457600080fd5b505af11580156104b8573d6000803e3d6000fd5b5050505050565b6000826001600160a01b03166338d52e0f6040518163ffffffff1660e01b8152600401602060405180830381865afa1580156104ff573d6000803e3d6000fd5b505050506040513d601f19601f820116820180604052508101906105239190610dd4565b6040516323b872dd60e01b8152336004820152306024820152604481018690526001600160a01b0391909116906323b872dd906064016020604051808303816000875af1158015610578573d6000803e3d6000fd5b505050506040513d601f19601f8201168201806040525081019061059c9190610df1565b50600154604080516024808201939093528151808203909301835260440181526020820180516001600160e01b031663253d844d60e21b1790528051600381830181815260c083019093526000928291606080840190803683370190505081526040805160038082526080820190925260209092019190816020015b6060815260200190600190039081610618575050905280518051919250600091829061064657610646610e13565b6020026020010190600381111561065f5761065f610e29565b9081600381111561067257610672610e29565b815250506002816000015160018151811061068f5761068f610e13565b602002602001019060038111156106a8576106a8610e29565b908160038111156106bb576106bb610e29565b81525050600381600001516002815181106106d8576106d8610e13565b602002602001019060038111156106f1576106f1610e29565b9081600381111561070457610704610e29565b905250600354600154604051610768926001600160a01b03169182916394e05b2c916107369160240190815260200190565b604051602081830303815290604052915060e01b6020820180516001600160e01b038381831617835250505050610caa565b816020015160008151811061077f5761077f610e13565b602002602001018190525061079f60408051602081019091526000815290565b81602001516001815181106107b6576107b6610e13565b60200260200101819052506107d660408051602081019091526000815290565b81602001516002815181106107ed576107ed610e13565b6020908102919091010152600354604051633323b46760e01b81526000916001600160a01b037f0000000000000000000000000000000000000000000000000000000000000000811692633323b467926108659216908790879073eeeeeeeeeeeeeeeeeeeeeeeeeeeeeeeeeeeeeeee90600401610eda565b6020604051808303816000875af1158015610884573d6000803e3d6000fd5b505050506040513d601f19601f820116820180604052508101906108a89190610f9c565b6040805160e08101825233815260208082018c81528284018c81526001600160a01b038c8116606086018181528d83166080880190815260a088018a8152600060c08a01818152600180548352828b52918c90209a518b546001600160a01b0319908116918916919091178c559851918b0191909155955160028a015591516003890180548816918616919091179055516004808901805490971691909416179094559251600586015590516006909401805460ff19169415159490941790935583516338d52e0f60e01b81529351949550936338d52e0f9380840193908290030181865afa15801561099f573d6000803e3d6000fd5b505050506040513d601f19601f820116820180604052508101906109c39190610dd4565b6004805460405163a9059cbb60e01b81526001600160a01b0391821692810192909252602482018a9052919091169063a9059cbb906044016020604051808303816000875af1158015610a1a573d6000803e3d6000fd5b505050506040513d601f19601f82011682018060405250810190610a3e9190610df1565b506004805460015460405163b6b55f2560e01b8152928301526001600160a01b03169063b6b55f2590602401600060405180830381600087803b158015610a8457600080fd5b505af1158015610a98573d6000803e3d6000fd5b505060018054925090506000610aad83610fcb565b91905055507ff29bb1c73c1b34ece9e10cb136610579d9b7cb3f424e0e58c2d22e958092e615600154604051610b0a91906040808252600a90820152696f726465724e6f6e636560b01b6060820152602081019190915260800190565b60405180910390a160018054610b209190610fe4565b98975050505050505050565b336001600160a01b037f00000000000000000000000000000000000000000000000000000000000000001614610bb05760405162461bcd60e51b815260206004820152602360248201527f4f6e6c792066756e6473206f776e65722063616e2077697468647261772066756044820152626e647360e81b6064820152608401610391565b604051631c20fadd60e01b81526001600160a01b037f0000000000000000000000000000000000000000000000000000000000000000811660048301528281166024830152604482018490527f00000000000000000000000000000000000000000000000000000000000000001690631c20fadd90606401600060405180830381600087803b158015610c4257600080fd5b505af1158015610c56573d6000803e3d6000fd5b505050505050565b6002546001600160a01b03163314610c885760405162461bcd60e51b815260040161039190610da6565b600380546001600160a01b0319166001600160a01b0392909216919091179055565b60608282604051602001610cbf929190610ff7565b60405160208183030381529060405290505b92915050565b600060208284031215610ce957600080fd5b5035919050565b6001600160a01b0381168114610d0557600080fd5b50565b600060208284031215610d1a57600080fd5b8135610d2581610cf0565b9392505050565b60008060008060808587031215610d4257600080fd5b84359350602085013592506040850135610d5b81610cf0565b91506060850135610d6b81610cf0565b939692955090935050565b60008060408385031215610d8957600080fd5b823591506020830135610d9b81610cf0565b809150509250929050565b6020808252601490820152732737ba1030b63637bbb2b21030b2323932b9b99760611b604082015260600190565b600060208284031215610de657600080fd5b8151610d2581610cf0565b600060208284031215610e0357600080fd5b81518015158114610d2557600080fd5b634e487b7160e01b600052603260045260246000fd5b634e487b7160e01b600052602160045260246000fd5b6000815180845260005b81811015610e6557602081850181015186830182015201610e49565b506000602082860101526020601f19601f83011685010191505092915050565b600081518084526020808501808196508360051b8101915082860160005b85811015610ecd578284038952610ebb848351610e3f565b98850198935090840190600101610ea3565b5091979650505050505050565b6001600160a01b038516815260806020808301829052600091610eff90840187610e3f565b838103604080860191909152865181835280519183018290528301906000906060840190825b81811015610f5e5784516004808210610f4b57634e487b7160e01b865260218152602486fd5b5083529386019391860191600101610f25565b505084890151925083810385850152610f778184610e85565b95505050505050610f9360608301846001600160a01b03169052565b95945050505050565b600060208284031215610fae57600080fd5b5051919050565b634e487b7160e01b600052601160045260246000fd5b600060018201610fdd57610fdd610fb5565b5060010190565b81810381811115610cd157610cd1610fb5565b6001600160a01b038316815260406020820181905260009061101b90830184610e3f565b94935050505056fea2646970667358221220856595483d90316901585b01cdec09965afc16e967d1e2dbf4ddc33e26d2f7f464736f6c63430008130033000000000000000000000000b3f5503f93d5ef84b06993a1975b9d21b962892f",
        "nonce": "0x6",
        "accessList": []
      },
      "additionalContracts": []
    },
    {
      "hash": "0xe45205dfd29e4e9b2abfd367c157715c611e6cf03a0c886a71cbe2b7be9cb6c6",
      "transactionType": "CREATE",
      "contractName": "OrderExecutor",
      "contractAddress": "0x9221E6606a7c328fF69C7d78793592dF232F522d",
      "function": null,
      "arguments": [
        "0xB3f5503f93d5Ef84b06993a1975B9D21B962892F",
        "0x3e02caeC5FC57e256292Fd54898a080AD65BCD22",
        "0xE592427A0AEce92De3Edee1F18E0157C05861564"
      ],
      "rpc": "https://polygon-mumbai.infura.io/v3/679fa3785c5346fcb07d7fc1df71880b",
      "transaction": {
        "type": "0x02",
        "from": "0xc00bd227d8028c90f30b35930abe62ba551f8f36",
        "gas": "0x173e2e",
        "value": "0x0",
        "data": "0x6101006040523480156200001257600080fd5b50604051620014e6380380620014e683398101604081905262000035916200019b565b8282816001600160a01b03166080816001600160a01b031681525050816001600160a01b031663573ea5756040518163ffffffff1660e01b8152600401602060405180830381865afa15801562000090573d6000803e3d6000fd5b505050506040513d601f19601f82011682018060405250810190620000b69190620001ef565b6001600160a01b0390811660c0526040516337b6269f60e21b8152908216600482015273c815db16d4be6ddf2685c201937905abf338f5d79063ded89a7c906024016040805180830381865afa15801562000115573d6000803e3d6000fd5b505050506040513d601f19601f820116820180604052508101906200013b919062000216565b506001600160a01b0390811660a052606460005560018054336001600160a01b031991821617909155600280549091169582169590951790945550501660e0525062000259565b6001600160a01b03811681146200019857600080fd5b50565b600080600060608486031215620001b157600080fd5b8351620001be8162000182565b6020850151909350620001d18162000182565b6040850151909250620001e48162000182565b809150509250925092565b6000602082840312156200020257600080fd5b81516200020f8162000182565b9392505050565b600080604083850312156200022a57600080fd5b8251620002378162000182565b602084015190925080151581146200024e57600080fd5b809150509250929050565b60805160a05160c05160e051611231620002b5600039600081816101e3015281816107180152610a09015260008181610c200152610cea01526000818160be01526103bb0152600081816102570152610b6f01526112316000f3fe6080604052600436106100a05760003560e01c806394f611341161006457806394f611341461018d578063a035b1fe146101ad578063c31c9c07146101d1578063cb8c5a3a14610205578063d5f3948814610225578063e70abe921461024557600080fd5b806328f150eb146100ac578063408a03d8146100fd578063776af5ba1461011f57806391b7f5ed1461013f57806394e05b2c1461015f57600080fd5b366100a757005b600080fd5b3480156100b857600080fd5b506100e07f000000000000000000000000000000000000000000000000000000000000000081565b6040516001600160a01b0390911681526020015b60405180910390f35b34801561010957600080fd5b5061011d610118366004610fda565b610279565b005b34801561012b57600080fd5b506002546100e0906001600160a01b031681565b34801561014b57600080fd5b5061011d61015a366004610ffe565b600055565b34801561016b57600080fd5b5061017f61017a366004610ffe565b6102f1565b6040516100f4929190611067565b34801561019957600080fd5b5061011d6101a8366004610ffe565b6103b0565b3480156101b957600080fd5b506101c360005481565b6040519081526020016100f4565b3480156101dd57600080fd5b506100e07f000000000000000000000000000000000000000000000000000000000000000081565b34801561021157600080fd5b506003546100e0906001600160a01b031681565b34801561023157600080fd5b506001546100e0906001600160a01b031681565b34801561025157600080fd5b506100e07f000000000000000000000000000000000000000000000000000000000000000081565b6001546001600160a01b031633146102cf5760405162461bcd60e51b81526020600482015260146024820152732737ba1030b63637bbb2b21030b2323932b9b99760611b60448201526064015b60405180910390fd5b600380546001600160a01b0319166001600160a01b0392909216919091179055565b6000805460025460405163d09ef24160e01b815260048101859052606092916001600160a01b03169063d09ef2419060240160e060405180830381865afa158015610340573d6000803e3d6000fd5b505050506040513d601f19601f8201168201806040525081019061036491906110a2565b602001511491508260405160240161037e91815260200190565b60408051601f198184030181529190526020810180516001600160e01b031663253d844d60e21b179052919391925050565b336001600160a01b037f000000000000000000000000000000000000000000000000000000000000000016146104285760405162461bcd60e51b815260206004820152601960248201527f4f6e6c7920646564696361746564206d73672e73656e6465720000000000000060448201526064016102c6565b60025460405163d09ef24160e01b8152600481018390526001600160a01b039091169063d09ef2419060240160e060405180830381865afa158015610471573d6000803e3d6000fd5b505050506040513d601f19601f8201168201806040525081019061049591906110a2565b60c00151156104e65760405162461bcd60e51b815260206004820152601760248201527f4f7264657220616c72656164792065786563757465642e00000000000000000060448201526064016102c6565b60005460025460405163d09ef24160e01b8152600481018490526001600160a01b039091169063d09ef2419060240160e060405180830381865afa158015610532573d6000803e3d6000fd5b505050506040513d601f19601f8201168201806040525081019061055691906110a2565b60200151146105be5760405162461bcd60e51b815260206004820152602e60248201527f5072696365206973206e6f74207468652073616d6520617320746865206f6e6560448201526d1034b7103a34329037b93232b91760911b60648201526084016102c6565b600354604051632e1a7d4d60e01b8152600481018390526000916001600160a01b031690632e1a7d4d906024016020604051808303816000875af115801561060a573d6000803e3d6000fd5b505050506040513d601f19601f8201168201806040525081019061062e919061114b565b60025460405163d09ef24160e01b8152600481018590529192506001600160a01b03169063d09ef2419060240160e060405180830381865afa158015610678573d6000803e3d6000fd5b505050506040513d601f19601f8201168201806040525081019061069c91906110a2565b606001516001600160a01b03166338d52e0f6040518163ffffffff1660e01b8152600401602060405180830381865afa1580156106dd573d6000803e3d6000fd5b505050506040513d601f19601f820116820180604052508101906107019190611164565b60405163095ea7b360e01b81526001600160a01b037f00000000000000000000000000000000000000000000000000000000000000008116600483015260248201849052919091169063095ea7b3906044016020604051808303816000875af1158015610772573d6000803e3d6000fd5b505050506040513d601f19601f820116820180604052508101906107969190611181565b506040805161010081019182905260025463d09ef24160e01b909252610104810184905260009181906001600160a01b031663d09ef241610124830160e060405180830381865afa1580156107ef573d6000803e3d6000fd5b505050506040513d601f19601f8201168201806040525081019061081391906110a2565b606001516001600160a01b03166338d52e0f6040518163ffffffff1660e01b8152600401602060405180830381865afa158015610854573d6000803e3d6000fd5b505050506040513d601f19601f820116820180604052508101906108789190611164565b6001600160a01b03908116825260025460405163d09ef24160e01b81526004810188905260209093019291169063d09ef2419060240160e060405180830381865afa1580156108cb573d6000803e3d6000fd5b505050506040513d601f19601f820116820180604052508101906108ef91906110a2565b608001516001600160a01b039081168252610bb860208301526002546040805163d09ef24160e01b81526004810189905293019291169063d09ef2419060240160e060405180830381865afa15801561094c573d6000803e3d6000fd5b505050506040513d601f19601f8201168201806040525081019061097091906110a2565b516001600160a01b03908116825242602080840191909152604080840187905260006060808601829052608095860191909152815163414bf38960e01b815286518516600482015292860151841660248401529085015162ffffff1660448301528401518216606482015291830151608483015260a083015160a483015260c083015160c483015260e0830151811660e48301529192507f00000000000000000000000000000000000000000000000000000000000000009091169063414bf38990610104016020604051808303816000875af1158015610a55573d6000803e3d6000fd5b505050506040513d601f19601f82011682018060405250810190610a79919061114b565b506002546040516302993c6960e41b8152600481018590526001600160a01b0390911690632993c69090602401600060405180830381600087803b158015610ac057600080fd5b505af1158015610ad4573d6000803e3d6000fd5b505050507f9e86ce0485ddb047dd0f8fde14218156b79c2832f3c1ae9d2a05aa746cb6e3be83604051610b3291906040808252600e908201526d1bdc99195c97d95e1958dd5d195960921b6060820152602081019190915260800190565b60405180910390a1600080610b45610b6a565b9150915047683635c9adc5dea0000014610b6357610b638282610bf7565b5050505050565b6000807f00000000000000000000000000000000000000000000000000000000000000006001600160a01b031663b810c6366040518163ffffffff1660e01b81526004016040805180830381865afa158015610bca573d6000803e3d6000fd5b505050506040513d601f19601f82011682018060405250810190610bee919061119c565b90939092509050565b73eeeeeeeeeeeeeeeeeeeeeeeeeeeeeeeeeeeeeeed196001600160a01b03821601610ce45760007f00000000000000000000000000000000000000000000000000000000000000006001600160a01b03168360405160006040518083038185875af1925050503d8060008114610c89576040519150601f19603f3d011682016040523d82523d6000602084013e610c8e565b606091505b5050905080610cdf5760405162461bcd60e51b815260206004820152601e60248201527f5f7472616e736665723a20455448207472616e73666572206661696c6564000060448201526064016102c6565b505050565b610d0f817f000000000000000000000000000000000000000000000000000000000000000084610d13565b5050565b604080516001600160a01b038416602482015260448082018490528251808303909101815260649091019091526020810180516001600160e01b031663a9059cbb60e01b179052610cdf9084906000610db5826040518060400160405280602081526020017f5361666545524332303a206c6f772d6c6576656c2063616c6c206661696c6564815250856001600160a01b0316610e329092919063ffffffff16565b805190915015610cdf5780806020019051810190610dd39190611181565b610cdf5760405162461bcd60e51b815260206004820152602a60248201527f5361666545524332303a204552433230206f7065726174696f6e20646964206e6044820152691bdd081cdd58d8d9595960b21b60648201526084016102c6565b6060610e418484600085610e49565b949350505050565b606082471015610eaa5760405162461bcd60e51b815260206004820152602660248201527f416464726573733a20696e73756666696369656e742062616c616e636520666f6044820152651c8818d85b1b60d21b60648201526084016102c6565b600080866001600160a01b03168587604051610ec691906111cc565b60006040518083038185875af1925050503d8060008114610f03576040519150601f19603f3d011682016040523d82523d6000602084013e610f08565b606091505b5091509150610f1987838387610f24565b979650505050505050565b60608315610f93578251600003610f8c576001600160a01b0385163b610f8c5760405162461bcd60e51b815260206004820152601d60248201527f416464726573733a2063616c6c20746f206e6f6e2d636f6e747261637400000060448201526064016102c6565b5081610e41565b610e418383815115610fa85781518083602001fd5b8060405162461bcd60e51b81526004016102c691906111e8565b6001600160a01b0381168114610fd757600080fd5b50565b600060208284031215610fec57600080fd5b8135610ff781610fc2565b9392505050565b60006020828403121561101057600080fd5b5035919050565b60005b8381101561103257818101518382015260200161101a565b50506000910152565b60008151808452611053816020860160208601611017565b601f01601f19169290920160200192915050565b8215158152604060208201526000610e41604083018461103b565b805161108d81610fc2565b919050565b8051801515811461108d57600080fd5b600060e082840312156110b457600080fd5b60405160e0810181811067ffffffffffffffff821117156110e557634e487b7160e01b600052604160045260246000fd5b6040526110f183611082565b8152602083015160208201526040830151604082015261111360608401611082565b606082015261112460808401611082565b608082015260a083015160a082015261113f60c08401611092565b60c08201529392505050565b60006020828403121561115d57600080fd5b5051919050565b60006020828403121561117657600080fd5b8151610ff781610fc2565b60006020828403121561119357600080fd5b610ff782611092565b600080604083850312156111af57600080fd5b8251915060208301516111c181610fc2565b809150509250929050565b600082516111de818460208701611017565b9190910192915050565b602081526000610ff7602083018461103b56fea264697066735822122002a8422d0c0c7ce19df4baed8fc27fe07fe815ddbf8e70e2bbccc1760542853264736f6c63430008130033000000000000000000000000b3f5503f93d5ef84b06993a1975b9d21b962892f0000000000000000000000003e02caec5fc57e256292fd54898a080ad65bcd22000000000000000000000000e592427a0aece92de3edee1f18e0157c05861564",
        "nonce": "0x7",
        "accessList": []
      },
      "additionalContracts": []
    },
    {
      "hash": "0x997fcdecbf08da55bd303c3c229648d6cc9e20aeffe46a7601a80fffa1544dee",
      "transactionType": "CALL",
      "contractName": "OrderBook",
      "contractAddress": "0x3e02caeC5FC57e256292Fd54898a080AD65BCD22",
      "function": "setOrderExecutor(address)",
      "arguments": [
        "0x9221E6606a7c328fF69C7d78793592dF232F522d"
      ],
      "rpc": "https://polygon-mumbai.infura.io/v3/679fa3785c5346fcb07d7fc1df71880b",
      "transaction": {
        "type": "0x02",
        "from": "0xc00bd227d8028c90f30b35930abe62ba551f8f36",
        "to": "0x3e02caec5fc57e256292fd54898a080ad65bcd22",
        "gas": "0x10741",
        "value": "0x0",
        "data": "0x756677a10000000000000000000000009221e6606a7c328ff69c7d78793592df232f522d",
        "nonce": "0x8",
        "accessList": []
      },
      "additionalContracts": []
    },
    {
      "hash": "0xbc58ecf27dda2029d460fa44de0a1f4014638336ed04c71da3e15a48137a0c69",
      "transactionType": "CREATE",
      "contractName": "LendingVault",
      "contractAddress": "0x70353544C681f035C7A3f8879D8D3b46A7A37ee5",
      "function": null,
      "arguments": [
        "0x3e02caeC5FC57e256292Fd54898a080AD65BCD22"
      ],
      "rpc": "https://polygon-mumbai.infura.io/v3/679fa3785c5346fcb07d7fc1df71880b",
      "transaction": {
        "type": "0x02",
        "from": "0xc00bd227d8028c90f30b35930abe62ba551f8f36",
        "gas": "0x9522f",
        "value": "0x0",
        "data": "0x60a060405234801561001057600080fd5b5060405161082438038061082483398101604081905261002f91610040565b6001600160a01b0316608052610070565b60006020828403121561005257600080fd5b81516001600160a01b038116811461006957600080fd5b9392505050565b60805161078561009f60003960008181609c0152818161010e01528181610302015261041501526107856000f3fe608060405234801561001057600080fd5b506004361061004c5760003560e01c80632e1a7d4d146100515780633b75556114610077578063776af5ba14610097578063b6b55f25146100d6575b600080fd5b61006461005f3660046105fd565b6100eb565b6040519081526020015b60405180910390f35b6100646100853660046105fd565b60006020819052908152604090205481565b6100be7f000000000000000000000000000000000000000000000000000000000000000081565b6040516001600160a01b03909116815260200161006e565b6100e96100e43660046105fd565b6103fc565b005b60405163d09ef24160e01b81526004810182905260009081906001600160a01b037f0000000000000000000000000000000000000000000000000000000000000000169063d09ef2419060240160e060405180830381865afa158015610155573d6000803e3d6000fd5b505050506040513d601f19601f82011682018060405250810190610179919061064e565b60608101516000858152602081905260409081902054905163095ea7b360e01b81526001600160a01b038316600482018190526024820192909252929350909163095ea7b3906044016020604051808303816000875af11580156101e1573d6000803e3d6000fd5b505050506040513d601f19601f8201168201806040525081019061020591906106f7565b50600084815260208190526040808220549051635d043b2960e11b81526004810191909152306024820181905260448201526001600160a01b0383169063ba087652906064016020604051808303816000875af115801561026a573d6000803e3d6000fd5b505050506040513d601f19601f8201168201806040525081019061028e9190610719565b9050816001600160a01b03166338d52e0f6040518163ffffffff1660e01b8152600401602060405180830381865afa1580156102ce573d6000803e3d6000fd5b505050506040513d601f19601f820116820180604052508101906102f29190610732565b6001600160a01b031663a9059cbb7f00000000000000000000000000000000000000000000000000000000000000006001600160a01b031663350157a86040518163ffffffff1660e01b8152600401602060405180830381865afa15801561035e573d6000803e3d6000fd5b505050506040513d601f19601f820116820180604052508101906103829190610732565b6040516001600160e01b031960e084901b1681526001600160a01b039091166004820152602481018490526044016020604051808303816000875af11580156103cf573d6000803e3d6000fd5b505050506040513d601f19601f820116820180604052508101906103f391906106f7565b50949350505050565b60405163d09ef24160e01b8152600481018290526000907f00000000000000000000000000000000000000000000000000000000000000006001600160a01b03169063d09ef2419060240160e060405180830381865afa158015610464573d6000803e3d6000fd5b505050506040513d601f19601f82011682018060405250810190610488919061064e565b9050600081606001519050806001600160a01b03166338d52e0f6040518163ffffffff1660e01b8152600401602060405180830381865afa1580156104d1573d6000803e3d6000fd5b505050506040513d601f19601f820116820180604052508101906104f59190610732565b604080840151905163095ea7b360e01b81526001600160a01b038481166004830152602482019290925291169063095ea7b3906044016020604051808303816000875af115801561054a573d6000803e3d6000fd5b505050506040513d601f19601f8201168201806040525081019061056e91906106f7565b506040828101519051636e553f6560e01b815260048101919091523060248201526001600160a01b03821690636e553f65906044016020604051808303816000875af11580156105c2573d6000803e3d6000fd5b505050506040513d601f19601f820116820180604052508101906105e69190610719565b600093845260208490526040909320929092555050565b60006020828403121561060f57600080fd5b5035919050565b6001600160a01b038116811461062b57600080fd5b50565b805161063981610616565b919050565b8051801515811461063957600080fd5b600060e0828403121561066057600080fd5b60405160e0810181811067ffffffffffffffff8211171561069157634e487b7160e01b600052604160045260246000fd5b60405261069d8361062e565b815260208301516020820152604083015160408201526106bf6060840161062e565b60608201526106d06080840161062e565b608082015260a083015160a08201526106eb60c0840161063e565b60c08201529392505050565b60006020828403121561070957600080fd5b6107128261063e565b9392505050565b60006020828403121561072b57600080fd5b5051919050565b60006020828403121561074457600080fd5b81516107128161061656fea2646970667358221220457e0f28b57f4798dd5e298c5f6aa1740f36e0076b4d239b714bfd405125ffba64736f6c634300081300330000000000000000000000003e02caec5fc57e256292fd54898a080ad65bcd22",
        "nonce": "0x9",
        "accessList": []
      },
      "additionalContracts": []
    },
    {
      "hash": "0xc7ddab54c3f07a1c6658c557846d56d3f45e46291688bbb3cd7c9c3dd5d40e4f",
      "transactionType": "CALL",
      "contractName": "OrderBook",
      "contractAddress": "0x3e02caeC5FC57e256292Fd54898a080AD65BCD22",
      "function": "setLendingVault(address)",
      "arguments": [
        "0x70353544C681f035C7A3f8879D8D3b46A7A37ee5"
      ],
      "rpc": "https://polygon-mumbai.infura.io/v3/679fa3785c5346fcb07d7fc1df71880b",
      "transaction": {
        "type": "0x02",
        "from": "0xc00bd227d8028c90f30b35930abe62ba551f8f36",
        "to": "0x3e02caec5fc57e256292fd54898a080ad65bcd22",
        "gas": "0xf8c0",
        "value": "0x0",
        "data": "0x408a03d800000000000000000000000070353544c681f035c7a3f8879d8d3b46a7a37ee5",
        "nonce": "0xa",
        "accessList": []
      },
      "additionalContracts": []
    },
    {
      "hash": "0xac6dfa888ba5e6c54d854e39c5dd90612b3af35c6f9c2e5e2d3c2eb3a4a02cea",
      "transactionType": "CALL",
      "contractName": "OrderExecutor",
      "contractAddress": "0x9221E6606a7c328fF69C7d78793592dF232F522d",
      "function": "setLendingVault(address)",
      "arguments": [
        "0x70353544C681f035C7A3f8879D8D3b46A7A37ee5"
      ],
      "rpc": "https://polygon-mumbai.infura.io/v3/679fa3785c5346fcb07d7fc1df71880b",
      "transaction": {
        "type": "0x02",
        "from": "0xc00bd227d8028c90f30b35930abe62ba551f8f36",
        "to": "0x9221e6606a7c328ff69c7d78793592df232f522d",
        "gas": "0xf883",
        "value": "0x0",
        "data": "0x408a03d800000000000000000000000070353544c681f035c7a3f8879d8d3b46a7a37ee5",
        "nonce": "0xb",
        "accessList": []
      },
      "additionalContracts": []
    }
  ],
  "receipts": [
    {
      "transactionHash": "0x6d88da575f1763577fbbee11c100e9e72e32f82bfd6047447795bf0143f1f8d4",
      "transactionIndex": "0x0",
      "blockHash": "0x053fa20c21013cf679bd12e0f65c7b3b8bfe88a3894dbb99e0182fe9b0e35ab0",
      "blockNumber": "0x1f77f75",
      "from": "0xc00bd227D8028c90f30B35930abe62bA551F8f36",
      "to": null,
      "cumulativeGasUsed": "0xfaba1",
      "gasUsed": "0xfaba1",
      "contractAddress": "0x3e02caeC5FC57e256292Fd54898a080AD65BCD22",
      "logs": [
        {
          "address": "0x0000000000000000000000000000000000001010",
          "topics": [
            "0x4dfe1bbbcf077ddc3e01291eea2d5c70c2b422b415d95645b9adcfd678cb1d63",
            "0x0000000000000000000000000000000000000000000000000000000000001010",
            "0x000000000000000000000000c00bd227d8028c90f30b35930abe62ba551f8f36",
            "0x0000000000000000000000003a22c8bc68e98b0faf40f349dd2b2890fae01484"
          ],
          "data": "0x00000000000000000000000000000000000000000000000000123e2693782391000000000000000000000000000000000000000000000000034951127e2ee2fb00000000000000000000000000000000000000000000039ea3f0e2f3edd4a327000000000000000000000000000000000000000000000000033712ebeab6bf6a00000000000000000000000000000000000000000000039ea403211a814cc6b8",
          "blockHash": "0x053fa20c21013cf679bd12e0f65c7b3b8bfe88a3894dbb99e0182fe9b0e35ab0",
          "blockNumber": "0x1f77f75",
          "transactionHash": "0x6d88da575f1763577fbbee11c100e9e72e32f82bfd6047447795bf0143f1f8d4",
          "transactionIndex": "0x0",
          "logIndex": "0x0",
          "removed": false
        }
      ],
      "status": "0x1",
      "logsBloom": "0x00000000000000000000000000000000000000000000000000000000000000000000000000000000000010000000000000008000000000000000000000008000000000000000000000000200000000800000000000000010000100000000000000000000000000000000000000000000000000000000000080000000000000000000000000000000000000000000000000000000000000000000000000000000200000000000000000080000000000000000000000000000000000000000004000000000000000000001000000000100000000000000000000100000000000000000000000000000000000000000000000000000000000000000000000100000",
      "type": "0x2",
      "effectiveGasPrice": "0x12a05f200"
    },
    {
      "transactionHash": "0xe45205dfd29e4e9b2abfd367c157715c611e6cf03a0c886a71cbe2b7be9cb6c6",
      "transactionIndex": "0x1",
      "blockHash": "0x053fa20c21013cf679bd12e0f65c7b3b8bfe88a3894dbb99e0182fe9b0e35ab0",
      "blockNumber": "0x1f77f75",
      "from": "0xc00bd227D8028c90f30B35930abe62bA551F8f36",
      "to": null,
      "cumulativeGasUsed": "0x218cb1",
      "gasUsed": "0x11e110",
      "contractAddress": "0x9221E6606a7c328fF69C7d78793592dF232F522d",
      "logs": [
        {
          "address": "0x0000000000000000000000000000000000001010",
          "topics": [
            "0x4dfe1bbbcf077ddc3e01291eea2d5c70c2b422b415d95645b9adcfd678cb1d63",
            "0x0000000000000000000000000000000000000000000000000000000000001010",
            "0x000000000000000000000000c00bd227d8028c90f30b35930abe62ba551f8f36",
            "0x0000000000000000000000003a22c8bc68e98b0faf40f349dd2b2890fae01484"
          ],
          "data": "0x0000000000000000000000000000000000000000000000000014d066eb04f010000000000000000000000000000000000000000000000000033712ebe9cbb0fb00000000000000000000000000000000000000000000039ea403211a814cc6b800000000000000000000000000000000000000000000000003224284fec6c0eb00000000000000000000000000000000000000000000039ea417f1816c51b6c8",
          "blockHash": "0x053fa20c21013cf679bd12e0f65c7b3b8bfe88a3894dbb99e0182fe9b0e35ab0",
          "blockNumber": "0x1f77f75",
          "transactionHash": "0xe45205dfd29e4e9b2abfd367c157715c611e6cf03a0c886a71cbe2b7be9cb6c6",
          "transactionIndex": "0x1",
          "logIndex": "0x1",
          "removed": false
        }
      ],
      "status": "0x1",
      "logsBloom": "0x00000000000000000000000000000000000000000000000000000000000000000000000000000000000010000000000000008000000000000000000000008000000000000000000000000200000000800000000000000010000100000000000000000000000000000000000000000000000000000000000080000000000000000000000000000000000000000000000000000000000000000000000000000000200000000000000000080000000000000000000000000000000000000000004000000000000000000001000000000100000000000000000000100000000000000000000000000000000000000000000000000000000000000000000000100000",
      "type": "0x2",
      "effectiveGasPrice": "0x12a05f200"
    },
    {
      "transactionHash": "0x997fcdecbf08da55bd303c3c229648d6cc9e20aeffe46a7601a80fffa1544dee",
      "transactionIndex": "0x2",
      "blockHash": "0x053fa20c21013cf679bd12e0f65c7b3b8bfe88a3894dbb99e0182fe9b0e35ab0",
      "blockNumber": "0x1f77f75",
      "from": "0xc00bd227D8028c90f30B35930abe62bA551F8f36",
      "to": "0x3e02caeC5FC57e256292Fd54898a080AD65BCD22",
      "cumulativeGasUsed": "0x2240b2",
      "gasUsed": "0xb401",
      "contractAddress": null,
      "logs": [
        {
          "address": "0x0000000000000000000000000000000000001010",
          "topics": [
            "0x4dfe1bbbcf077ddc3e01291eea2d5c70c2b422b415d95645b9adcfd678cb1d63",
            "0x0000000000000000000000000000000000000000000000000000000000001010",
            "0x000000000000000000000000c00bd227d8028c90f30b35930abe62ba551f8f36",
            "0x0000000000000000000000003a22c8bc68e98b0faf40f349dd2b2890fae01484"
          ],
          "data": "0x0000000000000000000000000000000000000000000000000000d18d582365f100000000000000000000000000000000000000000000000003224284fdba90fb00000000000000000000000000000000000000000000039ea417f1816c51b6c8000000000000000000000000000000000000000000000000032170f7a5972b0a00000000000000000000000000000000000000000000039ea418c30ec4751cb9",
          "blockHash": "0x053fa20c21013cf679bd12e0f65c7b3b8bfe88a3894dbb99e0182fe9b0e35ab0",
          "blockNumber": "0x1f77f75",
          "transactionHash": "0x997fcdecbf08da55bd303c3c229648d6cc9e20aeffe46a7601a80fffa1544dee",
          "transactionIndex": "0x2",
          "logIndex": "0x2",
          "removed": false
        }
      ],
      "status": "0x1",
      "logsBloom": "0x00000000000000000000000000000000000000000000000000000000000000000000000000000000000010000000000000008000000000000000000000008000000000000000000000000200000000800000000000000010000100000000000000000000000000000000000000000000000000000000000080000000000000000000000000000000000000000000000000000000000000000000000000000000200000000000000000080000000000000000000000000000000000000000004000000000000000000001000000000100000000000000000000100000000000000000000000000000000000000000000000000000000000000000000000100000",
      "type": "0x2",
      "effectiveGasPrice": "0x12a05f200"
    },
    {
      "transactionHash": "0xbc58ecf27dda2029d460fa44de0a1f4014638336ed04c71da3e15a48137a0c69",
      "transactionIndex": "0x3",
      "blockHash": "0x053fa20c21013cf679bd12e0f65c7b3b8bfe88a3894dbb99e0182fe9b0e35ab0",
      "blockNumber": "0x1f77f75",
      "from": "0xc00bd227D8028c90f30B35930abe62bA551F8f36",
      "to": null,
      "cumulativeGasUsed": "0x296c39",
      "gasUsed": "0x72b87",
      "contractAddress": "0x70353544C681f035C7A3f8879D8D3b46A7A37ee5",
      "logs": [
        {
          "address": "0x0000000000000000000000000000000000001010",
          "topics": [
            "0x4dfe1bbbcf077ddc3e01291eea2d5c70c2b422b415d95645b9adcfd678cb1d63",
            "0x0000000000000000000000000000000000000000000000000000000000001010",
            "0x000000000000000000000000c00bd227d8028c90f30b35930abe62ba551f8f36",
            "0x0000000000000000000000003a22c8bc68e98b0faf40f349dd2b2890fae01484"
          ],
          "data": "0x000000000000000000000000000000000000000000000000000858d5c65d1117000000000000000000000000000000000000000000000000032170f7a58c9efb00000000000000000000000000000000000000000000039ea418c30ec4751cb900000000000000000000000000000000000000000000000003191821df2f8de400000000000000000000000000000000000000000000039ea4211be48ad22dd0",
          "blockHash": "0x053fa20c21013cf679bd12e0f65c7b3b8bfe88a3894dbb99e0182fe9b0e35ab0",
          "blockNumber": "0x1f77f75",
          "transactionHash": "0xbc58ecf27dda2029d460fa44de0a1f4014638336ed04c71da3e15a48137a0c69",
          "transactionIndex": "0x3",
          "logIndex": "0x3",
          "removed": false
        }
      ],
      "status": "0x1",
      "logsBloom": "0x00000000000000000000000000000000000000000000000000000000000000000000000000000000000010000000000000008000000000000000000000008000000000000000000000000200000000800000000000000010000100000000000000000000000000000000000000000000000000000000000080000000000000000000000000000000000000000000000000000000000000000000000000000000200000000000000000080000000000000000000000000000000000000000004000000000000000000001000000000100000000000000000000100000000000000000000000000000000000000000000000000000000000000000000000100000",
      "type": "0x2",
      "effectiveGasPrice": "0x12a05f200"
    },
    {
      "transactionHash": "0xc7ddab54c3f07a1c6658c557846d56d3f45e46291688bbb3cd7c9c3dd5d40e4f",
      "transactionIndex": "0x4",
      "blockHash": "0x053fa20c21013cf679bd12e0f65c7b3b8bfe88a3894dbb99e0182fe9b0e35ab0",
      "blockNumber": "0x1f77f75",
      "from": "0xc00bd227D8028c90f30B35930abe62bA551F8f36",
      "to": "0x3e02caeC5FC57e256292Fd54898a080AD65BCD22",
      "cumulativeGasUsed": "0x2a2051",
      "gasUsed": "0xb418",
      "contractAddress": null,
      "logs": [
        {
          "address": "0x0000000000000000000000000000000000001010",
          "topics": [
            "0x4dfe1bbbcf077ddc3e01291eea2d5c70c2b422b415d95645b9adcfd678cb1d63",
            "0x0000000000000000000000000000000000000000000000000000000000001010",
            "0x000000000000000000000000c00bd227d8028c90f30b35930abe62ba551f8f36",
            "0x0000000000000000000000003a22c8bc68e98b0faf40f349dd2b2890fae01484"
          ],
          "data": "0x0000000000000000000000000000000000000000000000000000d1a81eac229800000000000000000000000000000000000000000000000003191821dec400fb00000000000000000000000000000000000000000000039ea4211be48ad22dd000000000000000000000000000000000000000000000000003184679c017de6300000000000000000000000000000000000000000000039ea421ed8ca97e5068",
          "blockHash": "0x053fa20c21013cf679bd12e0f65c7b3b8bfe88a3894dbb99e0182fe9b0e35ab0",
          "blockNumber": "0x1f77f75",
          "transactionHash": "0xc7ddab54c3f07a1c6658c557846d56d3f45e46291688bbb3cd7c9c3dd5d40e4f",
          "transactionIndex": "0x4",
          "logIndex": "0x4",
          "removed": false
        }
      ],
      "status": "0x1",
      "logsBloom": "0x00000000000000000000000000000000000000000000000000000000000000000000000000000000000010000000000000008000000000000000000000008000000000000000000000000200000000800000000000000010000100000000000000000000000000000000000000000000000000000000000080000000000000000000000000000000000000000000000000000000000000000000000000000000200000000000000000080000000000000000000000000000000000000000004000000000000000000001000000000100000000000000000000100000000000000000000000000000000000000000000000000000000000000000000000100000",
      "type": "0x2",
      "effectiveGasPrice": "0x12a05f200"
    },
    {
      "transactionHash": "0xac6dfa888ba5e6c54d854e39c5dd90612b3af35c6f9c2e5e2d3c2eb3a4a02cea",
      "transactionIndex": "0x5",
      "blockHash": "0x053fa20c21013cf679bd12e0f65c7b3b8bfe88a3894dbb99e0182fe9b0e35ab0",
      "blockNumber": "0x1f77f75",
      "from": "0xc00bd227D8028c90f30B35930abe62bA551F8f36",
      "to": "0x9221E6606a7c328fF69C7d78793592dF232F522d",
      "cumulativeGasUsed": "0x2ad43d",
      "gasUsed": "0xb3ec",
      "contractAddress": null,
      "logs": [
        {
          "address": "0x0000000000000000000000000000000000001010",
          "topics": [
            "0x4dfe1bbbcf077ddc3e01291eea2d5c70c2b422b415d95645b9adcfd678cb1d63",
            "0x0000000000000000000000000000000000000000000000000000000000001010",
            "0x000000000000000000000000c00bd227d8028c90f30b35930abe62ba551f8f36",
            "0x0000000000000000000000003a22c8bc68e98b0faf40f349dd2b2890fae01484"
          ],
          "data": "0x0000000000000000000000000000000000000000000000000000d174e5a68d2c00000000000000000000000000000000000000000000000003184679c00d50fb00000000000000000000000000000000000000000000039ea421ed8ca97e506800000000000000000000000000000000000000000000000003177504da66c3cf00000000000000000000000000000000000000000000039ea422bf018f24dd94",
          "blockHash": "0x053fa20c21013cf679bd12e0f65c7b3b8bfe88a3894dbb99e0182fe9b0e35ab0",
          "blockNumber": "0x1f77f75",
          "transactionHash": "0xac6dfa888ba5e6c54d854e39c5dd90612b3af35c6f9c2e5e2d3c2eb3a4a02cea",
          "transactionIndex": "0x5",
          "logIndex": "0x5",
          "removed": false
        }
      ],
      "status": "0x1",
      "logsBloom": "0x00000000000000000000000000000000000000000000000000000000000000000000000000000000000010000000000000008000000000000000000000008000000000000000000000000200000000800000000000000010000100000000000000000000000000000000000000000000000000000000000080000000000000000000000000000000000000000000000000000000000000000000000000000000200000000000000000080000000000000000000000000000000000000000004000000000000000000001000000000100000000000000000000100000000000000000000000000000000000000000000000000000000000000000000000100000",
      "type": "0x2",
      "effectiveGasPrice": "0x12a05f200"
    }
  ],
  "libraries": [],
  "pending": [],
  "path": "/Users/blabla/Documents/yieldex/YielDex_Core/broadcast/Deploy_MUMBAI.s.sol/80001/run-latest.json",
  "returns": {},
  "timestamp": 1678573633,
  "chain": 80001,
  "multi": false,
  "commit": "39208b9"
}